:020000040800F2
:1000000000500020A5320008ED320008ED32000853
:10001000ED320008ED320008ED320008000000006B
:10002000000000000000000000000000ED320008A9
:10003000ED32000800000000ED320008ED3200084B
:10004000ED320008ED320008ED320008ED32000814
:10005000ED320008ED320008ED320008ED32000804
:10006000ED320008ED320008ED320008ED320008F4
:10007000ED320008ED320008ED320008ED320008E4
:10008000ED320008ED320008ED320008ED320008D4
:10009000ED320008ED320008ED320008ED320008C4
:1000A000ED320008ED320008ED320008ED320008B4
:1000B000ED320008ED320008ED320008ED320008A4
:1000C000ED320008ED320008ED320008ED32000894
:1000D000ED32000819320008ED320008ED32000858
:1000E000ED320008ED320008ED320008000000009B
:1000F0000000000000000000000000000000000000
:0C01000000000000000000005FF808F1A3
:1001100010B5054C237833B9044B13B10448AFF341
:1001200000800123237010BD880000200000000023
:100130000C01000808B5034B1BB103490348AFF39A
:10014000008008BD000000008C0000200C010008A9
:1001500081F0004102E000BF83F0004330B54FEA78
:1001600041044FEA430594EA050F08BF90EA020FE5
:100170001FBF54EA000C55EA020C7FEA645C7FEA78
:10018000655C00F0E2804FEA5454D4EB5555B8BF9B
:100190006D420CDD2C4480EA020281EA030382EA0C
:1001A000000083EA010180EA020281EA0303362D9E
:1001B00088BF30BD11F0004F4FEA01314FF4801C71
:1001C0004CEA113102D0404261EB410113F0004F83
:1001D0004FEA03334CEA133302D0524263EB43033A
:1001E00094EA050F00F0A780A4F10104D5F1200ED8
:1001F0000DDB02FA0EFC22FA05F2801841F1000133
:1002000003FA0EF2801843FA05F359410EE0A5F106
:1002100020050EF1200E012A03FA0EFC28BF4CF037
:10022000020C43FA05F3C01851EBE37101F00045ED
:1002300007D54FF0000EDCF1000C7EEB00006EEBFA
:100240000101B1F5801F1BD3B1F5001F0CD3490884
:100250005FEA30004FEA3C0C04F101044FEA4452DB
:1002600012F5800F80F09A80BCF1004F08BF5FEA62
:10027000500C50F1000041EB045141EA050130BD42
:100280005FEA4C0C404141EB010111F4801FA4F1E5
:100290000104E9D191F0000F04BF01460020B1FA3A
:1002A00081F308BF2033A3F10B03B3F120020CDA72
:1002B0000C3208DD02F1140CC2F10C0201FA0CF050
:1002C00021FA02F10CE002F11402D8BFC2F1200CB5
:1002D00001FA02F120FA0CFCDCBF41EA0C0190406B
:1002E000E41AA2BF01EB0451294330BD6FEA0404B4
:1002F0001F3C1CDA0C340EDC04F11404C4F120029F
:1003000020FA04F001FA02F340EA030021FA04F3B0
:1003100045EA030130BDC4F10C04C4F1200220FA07
:1003200002F001FA04F340EA0300294630BD21FA45
:1003300004F0294630BD94F0000F83F4801306BF0B
:1003400081F480110134013D4EE77FEA645C18BFFF
:100350007FEA655C29D094EA050F08BF90EA020F96
:1003600005D054EA000C04BF1946104630BD91EA8E
:10037000030F1EBF0021002030BD5FEA545C05D191
:100380004000494128BF41F0004130BD14F58004D0
:100390003CBF01F5801130BD01F0004545F0FE4144
:1003A00041F470014FF0000030BD7FEA645C1ABF79
:1003B000194610467FEA655C1CBF0B46024650EAB0
:1003C000013406BF52EA033591EA030F41F40021DC
:1003D00030BD00BF90F0000F04BF0021704730B562
:1003E0004FF4806404F132044FF000054FF0000137
:1003F00050E700BF90F0000F04BF0021704730B5F8
:100400004FF4806404F1320410F0004548BF4042CC
:100410004FF000013EE700BF42004FEAE2014FEA21
:1004200031014FEA02701FBF12F07F4393F07F4FFC
:1004300081F06051704732F07F4208BF704793F0FF
:100440007F4F04BF41F40021704730B54FF4607412
:1004500001F0004521F000411CE700BF50EA010215
:1004600008BF704730B54FF000050AE050EA0102BE
:1004700008BF704730B511F0004502D5404261EB2E
:1004800041014FF4806404F132045FEA915C3FF46F
:10049000D8AE4FF003025FEADC0C18BF03325FEA0C
:1004A000DC0C18BF033202EBDC02C2F1200300FABD
:1004B00003FC20FA02F001FA03FE40EA0E0021FAE2
:1004C00002F11444BDE600BF70B54FF0FF0C4CF4D0
:1004D000E06C1CEA11541DBF1CEA135594EA0C0F82
:1004E00095EA0C0F00F0DEF82C4481EA030621EABD
:1004F0004C5123EA4C5350EA013518BF52EA0335F8
:1005000041F4801143F4801338D0A0FB02CE4FF0A9
:100510000005E1FB02E506F00042E0FB03E54FF0D9
:100520000006E1FB03569CF0000F18BF4EF0010ED1
:10053000A4F1FF04B6F5007F64F5407404D25FEACD
:100540004E0E6D4146EB060642EAC62141EA555180
:100550004FEAC52040EA5E504FEACE2EB4F1FD0CC2
:1005600088BFBCF5E06F1ED8BEF1004F08BF5FEA40
:10057000500E50F1000041EB045170BD06F00046F2
:1005800046EA010140EA020081EA0301B4EB5C049F
:10059000C2BFD4EB0C0541EA045170BD41F4801197
:1005A0004FF0000E013C00F3AB8014F1360FDEBFBC
:1005B000002001F0004170BDC4F10004203C35DA98
:1005C0000C341BDC04F11404C4F1200500FA05F31B
:1005D00020FA04F001FA05F240EA020001F00042BC
:1005E00021F0004110EBD37021FA04F642EB060132
:1005F0005EEA430E08BF20EAD37070BDC4F10C045C
:10060000C4F1200500FA04F320FA05F001FA04F21F
:1006100040EA020001F0004110EBD37041F100010B
:100620005EEA430E08BF20EAD37070BDC4F1200516
:1006300000FA05F24EEA020E20FA04F301FA05F27E
:1006400043EA020321FA04F001F0004121FA04F226
:1006500020EA020000EBD3705EEA430E08BF20EAF6
:10066000D37070BD94F0000F0FD101F00046400030
:1006700041EB010111F4801F08BF013CF7D041EAB2
:10068000060195F0000F18BF704703F000465200B6
:1006900043EB030313F4801F08BF013DF7D043EA87
:1006A0000603704794EA0C0F0CEA135518BF95EA3D
:1006B0000C0F0CD050EA410618BF52EA4306D1D1C4
:1006C00081EA030101F000414FF0000070BD50EAE3
:1006D000410606BF1046194652EA430619D094EA6D
:1006E0000C0F02D150EA013613D195EA0C0F05D157
:1006F00052EA03361CBF104619460AD181EA0301AB
:1007000001F0004141F0FE4141F470014FF0000062
:1007100070BD41F0FE4141F4780170BD70B54FF0FD
:10072000FF0C4CF4E06C1CEA11541DBF1CEA13557D
:1007300094EA0C0F95EA0C0F00F0A7F8A4EB05045F
:1007400081EA030E52EA03354FEA013100F0888056
:100750004FEA03334FF0805545EA131343EA12631F
:100760004FEA022245EA111545EA10654FEA0026D4
:100770000EF000419D4208BF964244F1FD0404F58D
:10078000407402D25B084FEA3202B61A65EB0305E9
:100790005B084FEA32024FF480104FF4002CB6EBA6
:1007A000020E75EB030E22BFB61A754640EA0C0026
:1007B0005B084FEA3202B6EB020E75EB030E22BF66
:1007C000B61A754640EA5C005B084FEA3202B6EBA7
:1007D000020E75EB030E22BFB61A754640EA9C0066
:1007E0005B084FEA3202B6EB020E75EB030E22BF36
:1007F000B61A754640EADC0055EA060E18D04FEAF4
:10080000051545EA16754FEA06164FEAC30343EA93
:1008100052734FEAC2025FEA1C1CC0D111F4801F60
:100820000BD141EA00014FF000004FF0004CB6E759
:1008300011F4801F04BF01430020B4F1FD0C88BFF8
:10084000BCF5E06F3FF6AFAEB5EB030C04BFB6EB03
:10085000020C5FEA500C50F1000041EB045170BDF6
:100860000EF0004E4EEA113114EB5C04C2BFD4EB23
:100870000C0541EA045170BD41F480114FF0000EA7
:10088000013C90E645EA060E8DE60CEA135594EA23
:100890000C0F08BF95EA0C0F3FF43BAF94EA0C0F26
:1008A0000AD150EA01347FF434AF95EA0C0F7FF49B
:1008B00025AF104619462CE795EA0C0F06D152EAEF
:1008C00003353FF4FDAE1046194622E750EA4106D3
:1008D00018BF52EA43067FF4C5AE50EA41047FF4E4
:1008E0000DAF52EA43057FF4EBAE12E74FEA410247
:1008F00012F5001215D211D56FF47873B3EB625272
:1009000012D94FEAC12343F0004343EA505311F098
:10091000004F23FA02F018BF404270474FF000002A
:10092000704750EA013005D111F0004008BF6FF068
:10093000004070474FF00000704700BF4A0011D2DE
:1009400012F5001211D20DD56FF47873B3EB625229
:100950000ED44FEAC12343F0004343EA505323FA35
:1009600002F070474FF00000704750EA013002D1AA
:100970004FF0FF3070474FF000007047000000005C
:1009800001F0FF01102A2BDB10F0070F08D010F840
:10099000013B013A8B422DD010F0070F42B3F6D144
:1009A000F0B441EA012141EA014122F007047FF05D
:1009B00000070023F0E80256083C85EA010586EAB4
:1009C000010685FA47F5A3FA87F586FA47F6A5FAF0
:1009D00087F68EB9EED1F0BC01F0FF0102F00702FC
:1009E00032B110F8013B013A83EA010313B1F8D1A7
:1009F0000020704701387047002D06BF3546033888
:100A0000073815F0010F07D1013015F4807F02BFC0
:100A1000013015F4C03F0130F0BC0138704700BF11
:100A200070B50D4E0D4CA41BA4100025A54209D194
:100A30000B4E0C4C03F0BAF8A41BA4100025A542E1
:100A400005D170BD56F8253098470135EEE756F8C8
:100A5000253098470135F2E7C43B0008C43B000845
:100A6000C43B0008C83B00080D4B196810B502468E
:100A700009B90C4919601868694602448A4206D8C7
:100A800009490A4C0968A14208D08A4206D902F0F5
:100A90002FFC0C2303604FF0FF3010BD1A60FCE701
:100AA000BC0000206001002080000020ADDEFECAF6
:100AB000D0B5012188B04FF4007000F0C7FC01A848
:100AC00000F08EFB1B4A936943F0040393614FF4DB
:100AD000004000F06BFC01240023022202A916480A
:100AE00002934FF4602600278DF80C308DF8182003
:100AF0008DF80D40CDE9046700F0A0F90E482146BD
:100B000000F0C0F90C4800F0C7F90B4800F0CAF932
:100B10000028FAD1084800F0C9F9074800F0CCF9DC
:100B200004460028F9D10121034800F0ABF9204622
:100B300008B0D0BD001002400024014000000000B9
:100B40002DE9F04F89B000F021FE01F01BF801F013
:100B5000D3FF02F011FBFFF7ABFF0121092000F0EA
:100B600075FC0121042000F071FC684600F038FBA0
:100B70004FF4804410220323694665488DF8032012
:100B80008DF80230ADF8004000F0A4F901210420F6
:100B900000F05CFC0121084600F064FC684600F0AF
:100BA0001FFB18240822022369465A48ADF800208A
:100BB0008DF802308DF8034000F08CF901A800F0A8
:100BC000EBFC482244F6206301A94FF08040CDE9B8
:100BD000012300F053FC04A800F0E6FC4E4B049304
:100BE00004A94FF47A734FF08040CDF8163000F02E
:100BF0009BFC01214FF0804000F0DCFC474D454F4D
:100C0000474C4FF0000A474ABDF8163013603B6866
:100C1000C7F800A03B6843F420433B6001230A204F
:100C2000C4F82CA0636302F073FA01213C4800F081
:100C300047F923689B07FCD50021204600F040F9C6
:100C4000E36CD4F84CE0E26CE06CE16C364E73443B
:100C5000134403442A680B44134486FB0320DA1729
:100C6000C2EB60002B60FFF7C5FB0FF29409D9E9D6
:100C700000892E4BC3E900016420C5E9028902F016
:100C800047FAD5E9028949464046FFF72FFE8346D9
:100C9000FFF7B0FB02460B4640464946FFF75CFAB9
:100CA00019A3D3E90023FFF70FFCFFF747FE5A46CD
:100CB00003461F491F4802F08BFB2B681E491F4843
:100CC00086FB0362DB17C3EB620202F081FB0021AB
:100CD000084600F053FE174802F09EF8012100205C
:100CE00000F04CFE154802F097F84FF0804344F6B0
:100CF000382200212960A3F8402084E7AFF3008068
:100D00009E40C75956D91B4000000000006AF840B9
:100D1000000C01400008014060000100A800002014
:100D200000240140D000002067666666C8000020ED
:100D3000083B0008E4000020103B0008D40000201D
:100D40003A4B3B4A196841F00101196059680A4061
:100D50005A601A6822F0847222F480321A601A688B
:100D600022F480221A605A6882B022F4FE02002126
:100D70004FF41F005A609860009101911A6842F484
:100D800080321A601A4603E0009BB3F5A06F09D0C9
:100D9000136803F400330193009B01330093019B1C
:100DA000002BF1D0214B1B6813F4003318BF012333
:100DB0000193019B012B05D01E4B4FF000629A60FE
:100DC00002B070471C4A194B116841F010011160C4
:100DD000116821F003011160116841F002011160F6
:100DE0005A685A605A685A605A6842F480625A6077
:100DF0005A6822F47C125A605A6842F4E8125A6027
:100E00001A6842F080721A601A689201FCD559681B
:100E1000064A21F003015960596841F00201596006
:100E2000536803F00C03082BFAD1C5E70010024009
:100E30000000FFF800ED00E000200240436870B4BD
:100E400023F470230E790D680D4C23F4807343EA6C
:100E500006232B434360D1E90223856813432C40CA
:100E60004A79234343EA420383600A7CC36A013A16
:100E7000D2B223F4700343EA0253C36270BC7047DA
:100E8000FDF7F1FF836819B923F001038360704710
:100E900043F0010383607047836843F00803836075
:100EA000704700BF8068C0F3C0007047836843F09C
:100EB00004038360704700BF8068C0F38000704700
:100EC000836819B923F4A0038360704743F4A00337
:100ED0008360704730B4CC78E30648BF8B7804F069
:100EE0000F0548BF1D430B8813F0FF0F33D0482C6C
:100EF000026800F0F480282C00F03381D90744BF49
:100F000022F00F022A43990744BF22F0F00242EA7E
:100F10000512590744BF22F4706242EA05221907FC
:100F200044BF22F4704242EA0532D90644BF22F49B
:100F3000702242EA0542990644BF22F4700242EA56
:100F40000552590644BF22F0706242EA0562190652
:100F500000F104810260FF2B4BD9282C42684AD053
:100F6000482C40F08E80D90505D522F00F024FF4B1
:100F700080712A4301619C0506D522F0F0024FF4EE
:100F8000007142EA05120161590506D522F470622A
:100F90004FF4806142EA052201611C0506D522F466
:100FA00070424FF4006142EA05320161D90406D56E
:100FB00022F470224FF4805142EA054201619C0400
:100FC00006D522F470024FF4005142EA0552016145
:100FD000590406D522F070624FF4804142EA05625E
:100FE00001611C0404D54FF4004365F31F720361D3
:100FF000426030BC7047D90505D522F00F024FF48E
:1010000080712A4341619C0506D522F0F0024FF41D
:10101000007142EA05124161590506D522F4706259
:101020004FF4806142EA052241611C0506D522F495
:1010300070424FF4006142EA05324161D90406D59D
:1010400022F470224FF4805142EA054241619C042F
:1010500006D522F470024FF4005142EA0552416174
:10106000590406D522F070624FF4804142EA0562CD
:1010700041611B04BCD54FF4004365F31F7243610B
:10108000B6E7D90544BF22F00F022A439C0544BFAE
:1010900022F0F00242EA0512590544BF22F47062C0
:1010A00042EA05221C0544BF22F4704242EA05329E
:1010B000D90444BF22F4702242EA05429C0444BF92
:1010C00022F4700242EA0552590444BF22F07062D1
:1010D00042EA05621C048BD565F31F7288E7D907C5
:1010E00004D522F00F0201212A430161990705D599
:1010F00022F0F002022142EA05120161590705D5EA
:1011000022F47062042142EA05220161190705D523
:1011100022F47042082142EA05320161D90605D560
:1011200022F47022102142EA05420161990605D598
:1011300022F47002202142EA05520161590605D5C8
:1011400022F07062402142EA0562016119067FF5D2
:1011500001AF802165F31F720161FBE665F31F7229
:10116000F8E6D90704D522F00F0201212A43416194
:10117000990705D522F0F002022142EA05124161E9
:10118000590705D522F47062042142EA0522416123
:10119000190705D522F47042082142EA053241615F
:1011A000D90605D522F47022102142EA0542416198
:1011B000990605D522F47002202142EA05524161C8
:1011C000590605D522F07062402142EA056241616C
:1011D00019067FF5BFAE802165F31F724161B9E644
:1011E0004FF6FF710222042301808270C3707047A2
:1011F0000028194B00F44012B4BFDB695B68B2F5FC
:10120000401F30B484B21ED0C20213D5C0F30345D0
:101210000322AA4023EA020343F0706319B1420D8E
:101220001201944023430C4A0028B4BFD361536099
:1012300030BC7047420D120104FA02F223EA0203A5
:1012400043F07063EAE7044D6A6822F0706223F0AD
:1012500070636A60E2E700BF00000140F0B5054638
:1012600087B001A80E46AC8800F0AAF803982C4974
:101270003368DFF8B8C0A1FB002124F03F04240448
:10128000890C240C8FB23C43AC802A8822F00102E6
:101290001204120C63452A801BD85B00B0FBF3F3E9
:1012A0009BB20137042B38BF04232F84AB832A88D9
:1012B000B18874891B4B308942F001022A802F8843
:1012C000B2893B4021430B4302432B802A8107B064
:1012D000F0BDF4884BF6FF7294421AD003EB8303FF
:1012E00003EB8303B0FBF3F39BB243F48043C3F3FC
:1012F0000B020AB943F001034FF496720A4802FB4D
:1013000001F1A0FB01218909013143F40043298443
:10131000CCE703EB4303B0FBF3F39BB2E7E700BF7B
:1013200083DE1B43F5FBFFFFD34D6210A086010057
:10133000038829B923F001031B041B0C03807047A9
:1013400043F0010303807047038829B923F48073B5
:101350001B041B0C0380704743F4807303807047A9
:10136000038829B923F400731B041B0C0380704706
:1013700043F40073038070470182704722B901F083
:10138000FE0189B20182704741F0010189B20182F8
:10139000704700BF838A028B21F07F4043EA0243FB
:1013A0001840401AB0FA80F040097047034A536869
:1013B00023F4404318435060704700BF00100240C0
:1013C0001E4A536803F00C03082B10B40FD1536866
:1013D0005168C3F38343C90303F1020329D552685B
:1013E000920326D4164A02FB03F3036001E0144B78
:1013F00003601249134A4C68C4F30314145DE340BC
:1014000043604C68C4F30224145D23FA04F484603E
:101410004C68C4F3C224145DE340C36049685DF8BE
:10142000044BC1F381310A44127CB3FBF2F3036134
:101430007047054A02FB03F30360DAE7001002403D
:1014400000127A000000002000093D00044A936960
:1014500019B923EA00009061704718439061704702
:1014600000100240044AD36919B923EA0000D06190
:1014700070471843D061704700100240274A038824
:10148000904270B49BB212D002F5006290420ED02E
:10149000B0F1804F0BD0A2F59832904207D002F500
:1014A0008062904203D002F58062904203D14A8864
:1014B00023F0700313431A4D8C880A88A84215D074
:1014C00005F58065A84211D0CE8823F4407305F558
:1014D0008C359BB23343A8420380848502850CD1AE
:1014E0000B7A03860123838270BC70470380848556
:1014F00002850123838270BC70470A4B9842EFD06B
:1015000003F540639842EBD003F580639842E7D03F
:1015100003F580639842E3D0EBE700BF002C014065
:101520000010004000340140F0B4048C0E89B1F882
:1015300002C00F88174D24F480542404240C048422
:10154000038C8488828B23F4005322F4E6421B042C
:1015500012041B0C46EA0C06120C43EA063342EA5C
:101560000722A8429BB2A4B292B20BD005F5006547
:10157000A84207D0C98884808283F0BCA0F84010BC
:10158000038470478D8924F4804444EA8514A4B20E
:10159000F0E700BF002C014000234FF6FF724260CD
:1015A00003600372704700BF0023036043608360E1
:1015B000C3607047038829B923F001031B041B0C87
:1015C0000380704743F0010303807047028A294B70
:1015D00070B592B20446C888274E22F440520243A6
:1015E0000D4689892282A089AA880340288913434D
:1015F0006A8903431343A381A38A9BB223F44073F4
:101600000B4386B0A38201A8FFF7DAFEDDE90330C1
:10161000A1892A68A589B44208BF0346174809046E
:1016200003EB83034CBF5200920003EB8303B3FB35
:10163000F2F3A0FB03214909642202FB11332A04BF
:101640004FEA01110AD41B013233A0FB0323C3F379
:1016500043130B439BB2238106B070BDDA003232D4
:10166000A0FB0232C2F3421242EA01039BB2238181
:1016700006B070BDF3E9FFFF003801401F85EB5154
:10168000838929B923F400531B041B0C8381704701
:1016900043F400538381704710B401F01F04C1F379
:1016A00042110123012903FA04F311D002290CBFCE
:1016B0001030143032B902685DF8044B22EA03039B
:1016C0000360704702685DF8044B13430360704782
:1016D0000C30EFE78088C0F308007047C1F3421276
:1016E00010B4012301F01F04012A03FA04F316D0F9
:1016F000022A0CBF028A828A1340028892B253B136
:101700000123090A03FA01F10A4214BF1846002016
:101710005DF8044B704718465DF8044B70478289AA
:101720001340EAE7090A012303FA01F1C94389B228
:1017300001807047F0B40178C378012401F01F02E2
:1017400094404E092BB920360E4B43F82640F0BC8E
:1017500070470D4A4378D56882780A4FE843C0F352
:101760000220C0F1040503FA05F50F23C34013401E
:101770002B4339441B01DBB281F8003347F8264084
:10178000F0BC704700E100E000ED00E030B5012161
:1017900087B00846FFF75AFE01210220FFF728FD17
:1017A00001214FF40010FFF75DFE01210820FFF733
:1017B0004DFE06AC03221C2301A94FF440751048CE
:1017C000ADF804508DF806200E4D8DF80730FFF768
:1017D00081FB0D4B44F8103D0C4B03934FF080629E
:1017E0004FF48043284601210492ADF81430FFF7EE
:1017F0009FFD21462846FFF731FD07B030BD00BFF1
:10180000000C014000540040A08601000000FFBF12
:101810002DE9F041544E554D96F80080544C070187
:1018200048F004080121524886F80080FFF78CFD3B
:10183000FFB229462046FFF7ADFD0028F9D000226F
:101840004E214B484B4D4A4CFFF798FD2946204608
:10185000FFF7A0FD0028F9D04548474D4146044612
:10186000FFF78AFD29462046FFF794FD0028F9D0AE
:101870003F48414D01210446FFF772FD29462046AD
:10188000FFF788FD0028F9D0322001F05BFC3378A7
:101890003748364D012104461F43FFF755FD2946C1
:1018A0002046FFF777FD0028F9D000224E2130486E
:1018B000304D2F4CFFF762FD29462046FFF76AFDA9
:1018C0000028F9D02A482C4D39460446FFF754FD2C
:1018D00029462046FFF75EFD0028F9D02448264D12
:1018E00001210446FFF73CFD29462046FFF752FD43
:1018F0000028F9D037781E481C4D07F0FB0701215E
:1019000004463770FFF720FD29462046FFF742FDC9
:101910000028F9D01648174D00224E210446FFF743
:101920002DFD29462046FFF735FD0028F9D0104847
:10193000114D39460446FFF71FFD29462046FFF7A3
:1019400029FD0028F9D00A480B4D01210446FFF774
:1019500007FD29462046FFF71DFD0028F9D032205B
:10196000BDE8F04101F0EEBBB8000020010003002B
:1019700000540040820007008400070070B5034651
:10198000032900F2F380DFE801F082B84202784ACE
:1019900078481678784D03F1540464F07F0406F01B
:1019A000FE060121E4B21670FFF7CEFC294671480D
:1019B000FFF7F0FC0028F9D000224E216D486F4D52
:1019C000FFF7DCFC29466B48FFF7E4FC0028F9D060
:1019D000314668486A4DFFF7CFFC29466548FFF756
:1019E000D9FC0028F9D06348654E01210546FFF770
:1019F000B7FC31462846FFF7CDFC0028F9D0200976
:101A0000FFF706FF2046BDE87040FFF701BF584AC8
:101A100058481578584C03F1140666F07F0605F017
:101A2000FE050121F6B21570FFF78EFC21465148E4
:101A3000FFF7B0FC0028F9D000224E214D484F4C52
:101A4000FFF79CFC21464B48FFF7A4FC0028F9D087
:101A5000294648484A4CFFF78FFC21464548FFF786
:101A600099FC0028F9D04348454D01210446FFF771
:101A700077FC29462046FFF78DFC0028F9D0300975
:101A8000FFF7C6FE3046BDE87040FFF7C1BE384ADA
:101A900038481578384C05F0FE05012143F08006E2
:101AA0001570FFF751FC21463248FFF773FC002800
:101AB000F9D000224E212F48304CFFF75FFC214621
:101AC0002C48FFF767FC0028F9D0294629482C4C00
:101AD000FFF752FC21462748FFF75CFC0028F9D0AD
:101AE0002448274D01210446FFF73AFC29462046A9
:101AF000FFF750FC0028F9D0C1E71D4A1D481578B2
:101B00001D4C03F1400666F07F0605F0FE0501213D
:101B1000F6B21570FFF718FC21461648FFF73AFC9D
:101B20000028F9D000224E211248144CFFF726FC61
:101B300021461048FFF72EFC0028F9D029460D4811
:101B40000F4CFFF719FC21460A48FFF723FC002839
:101B5000F9D008480A4D01210446FFF701FC294647
:101B60002046FFF717FC0028F9D088E770BD00BFBA
:101B7000B80000200054004001000300820007006C
:101B800084000700F8B5C04CC04DC14E0F2001F0D5
:101B9000BFFA2778284647F0040701212770FFF78E
:101BA000D3FB31462846FFF7F5FB0028F9D0002289
:101BB0004E21B648B74EB54DFFF7E0FB31462846FB
:101BC000FFF7E8FB0028F9D0B048B34E3946054688
:101BD000FFF7D2FB31462846FFF7DCFB0028F9D09F
:101BE000AA48AD4E01210546FFF7BAFB314628460B
:101BF000FFF7D0FB0028F9D0322001F0A3FA2778B4
:101C0000A248A34E0121054647F03007FFF79CFB91
:101C100031462846FFF7BEFB0028F9D000224E21AE
:101C20009A489C4E994DFFF7A9FB31462846FFF78D
:101C3000B1FB0028F9D09548974E39460546FFF785
:101C40009BFB31462846FFF7A5FB0028F9D08F48BB
:101C5000914E01210546FFF783FB31462846FFF7E9
:101C600099FB0028F9D027788848894E07F0FB07B0
:101C7000012105462770FFF767FB31462846FFF72D
:101C800089FB0028F9D000224E218048814E7F4DEB
:101C9000FFF774FB31462846FFF77CFB0028F9D09C
:101CA0007A487D4E39460546FFF766FB31462846A1
:101CB000FFF770FB0028F9D07448774E01210546E4
:101CC000FFF74EFB31462846FFF764FB0028F9D0AA
:101CD000322001F037FA042001F01AFA27786B4815
:101CE0006B4E47F00407012105462770FFF72CFBD8
:101CF00031462846FFF74EFB0028F9D000224E213E
:101D00006248644E614DFFF739FB31462846FFF7C4
:101D100041FB0028F9D05D485F4E39460546FFF784
:101D20002BFB31462846FFF735FB0028F9D05748F2
:101D3000594E01210546FFF713FB31462846FFF7B0
:101D400029FB0028F9D0322001F0FCF927784F4810
:101D50004F4E0121054647F03007FFF7F5FA3146AF
:101D60002846FFF717FB0028F9D000224E214748EC
:101D7000484E464DFFF702FB31462846FFF70AFB67
:101D80000028F9D04148444E39460546FFF7F4FA99
:101D900031462846FFF7FEFA0028F9D03B483E4E70
:101DA00001210546FFF7DCFA31462846FFF7F2FA33
:101DB0000028F9D027783548354E07F0FB07012178
:101DC00005462770FFF7C0FA31462846FFF7E2FACA
:101DD0000028F9D000224E212C482E4E2B4DFFF723
:101DE000CDFA31462846FFF7D5FA0028F9D0274822
:101DF000294E39460546FFF7BFFA31462846FFF718
:101E0000C9FA0028F9D02148234E01210546FFF7E1
:101E1000A7FA31462846FFF7BDFA0028F9D032204C
:101E200001F090F9642001F08DF927781748184ED9
:101E300047F00407012105462770FFF785FA314670
:101E40002846FFF7A7FA0028F9D000224E210F48B4
:101E5000104E0E4DFFF792FA31462846FFF79AFAD8
:101E60000028F9D009480C4E39460546FFF784FA98
:101E700031462846FFF78EFA0028F9D00348064E6F
:101E8000012105460AE000BFB800002000540040D0
:101E9000010003008200070084000700FFF760FADA
:101EA00031462846FFF776FA0028F9D0322001F0B3
:101EB00049F92778BC48BD4E0121054647F0300757
:101EC000FFF742FA31462846FFF764FA0028F9D0B6
:101ED00000224E21B448B64EB34DFFF74FFA3146BB
:101EE0002846FFF757FA0028F9D0AF48B14E3946D7
:101EF0000546FFF741FA31462846FFF74BFA00281E
:101F0000F9D0A948AB4E01210546FFF729FA314621
:101F10002846FFF73FFA0028F9D02778A248A34EB9
:101F200007F0FB07012105462770FFF70DFA314640
:101F30002846FFF72FFA0028F9D000224E219A48B0
:101F40009B4E994DFFF71AFA31462846FFF722FAC1
:101F50000028F9D09448974E39460546FFF70CFA09
:101F600031462846FFF716FA0028F9D08E48914EE0
:101F700001210546FFF7F4F931462846FFF70AFA32
:101F80000028F9D0322001F0DDF8012001F0C0F87E
:101F900027788548854E47F00407012105462770BC
:101FA000FFF7D2F931462846FFF7F4F90028F9D0B7
:101FB00000224E217C487E4E7B4DFFF7DFF93146F3
:101FC0002846FFF7E7F90028F9D07748794E3946D7
:101FD0000546FFF7D1F931462846FFF7DBF900281F
:101FE000F9D07148734E01210546FFF7B9F9314622
:101FF0002846FFF7CFF90028F9D0322001F0A2F8E7
:1020000027786948694E0121054647F02007FFF708
:102010009BF931462846FFF7BDF90028F9D0002288
:102020004E216148624E604DFFF7A8F931462846BF
:10203000FFF7B0F90028F9D05B485E4E39460546F7
:10204000FFF79AF931462846FFF7A4F90028F9D09E
:102050005548584E01210546FFF782F9314628467A
:10206000FFF798F90028F9D027784F484F4E07F02E
:10207000FB07012105462770FFF766F93146284620
:10208000FFF788F90028F9D000224E214648484E33
:10209000454DFFF773F931462846FFF77BF90028D5
:1020A000F9D04148434E39460546FFF765F93146B8
:1020B0002846FFF76FF90028F9D03B483D4E012133
:1020C0000546FFF74DF931462846FFF763F900282A
:1020D000F9D0322001F036F8012001F019F8277804
:1020E0003148324E07F0FE07012105462770FFF701
:1020F0002BF931462846FFF74DF90028F9D0002288
:102100004E2129482A4E284DFFF738F931462846F6
:10211000FFF740F90028F9D02348264E39460546F6
:10212000FFF72AF931462846FFF734F90028F9D09D
:102130001D48204E01210546FFF712F93146284679
:10214000FFF728F90028F9D027781748174E47F0ED
:102150000407012105462770FFF7F6F831462846A7
:10216000FFF718F90028F9D000224E210E48104E32
:102170000D4DFFF703F931462846FFF70BF900280C
:10218000F9D009480B4E39460546FFF7F5F83146B8
:102190002846FFF7FFF80028F9D00348054E012133
:1021A0000546FFF7DDF807E000540040010003009A
:1021B000820007008400070031462846FFF7EAF84E
:1021C0000028F9D0322000F0BDFF2778BB48BC4E74
:1021D0000121054647F02007FFF7B6F831462846AB
:1021E000FFF7D8F80028F9D000224E21B348B54EA9
:1021F000B24DFFF7C3F831462846FFF7CBF8002869
:10220000F9D0AE48B04E39460546FFF7B5F831462D
:102210002846FFF7BFF80028F9D0A848AA4E0121A8
:102220000546FFF79DF831462846FFF7B3F800282A
:10223000F9D02778A148A24E07F0FB0701210546F7
:102240002770FFF781F831462846FFF7A3F80028EA
:10225000F9D000224E2199489A4E984DFFF78EF8FA
:1022600031462846FFF796F80028F9D09348964E55
:1022700039460546FFF780F831462846FFF78AF8C9
:102280000028F9D08D48904E01210546FFF768F8E7
:1022900031462846FFF77EF80028F9D0322000F0BA
:1022A00051FF27788548864E47F0040701210546EF
:1022B0002770FFF749F831462846FFF76BF80028EA
:1022C000F9D000224E217D487E4E7C4DFFF756F816
:1022D00031462846FFF75EF80028F9D077487A4E55
:1022E00039460546FFF748F831462846FFF752F8C9
:1022F0000028F9D07148744E01210546FFF730F8E7
:1023000031462846FFF746F80028F9D0322000F081
:1023100019FF277869486A4E0121054647F0800772
:10232000FFF712F831462846FFF734F80028F9D0B5
:1023300000224E216148634E604DFFF71FF8314681
:102340002846FFF727F80028F9D05C485E4E39464A
:102350000546FFF711F831462846FFF71BF800281D
:10236000F9D05648584E01210546FEF7F9FF31468F
:102370002846FFF70FF80028F9D027784F48504E2D
:1023800007F0FB07012105462770FEF7DDFF314608
:102390002846FEF7FFFF0028F9D000224E214748CB
:1023A000484E464DFEF7EAFF31462846FEF7F2FF5B
:1023B0000028F9D04148444E39460546FEF7DCFF77
:1023C00031462846FEF7E6FF0028F9D03B483E4E4E
:1023D00001210546FEF7C4FF31462846FEF7DAFF25
:1023E0000028F9D0322000F0ADFE012000F090FE70
:1023F00027783248324E07F0FE0701210546277044
:10240000FEF7A2FF31462846FEF7C4FF0028F9D0A8
:1024100000224E2129482B4E284DFEF7AFFF3146B2
:102420002846FEF7B7FF0028F9D02448264E394643
:102430000546FEF7A1FF31462846FEF7ABFF002810
:10244000F9D01E48204E01210546FEF789FF31468E
:102450002846FEF79FFF0028F9D027781748184E26
:1024600047F00407012105462770FEF76DFF31464E
:102470002846FEF78FFF0028F9D000224E210F4892
:10248000104E0E4DFEF77AFF31462846FEF782FFCA
:102490000028F9D009480C4E39460546FEF76CFF76
:1024A00031462846FEF776FF0028F9D00348064E4D
:1024B00001210546FEF754FF08E000BF005400402C
:1024C000010003008200070084000700314628460F
:1024D000FEF760FF0028F9D0322000F033FEBB4841
:1024E0002778BB4E01210546FEF72EFF31462846D0
:1024F000FEF750FF0028F9D000224E21B348B54E18
:10250000B24DFEF73BFF31462846FEF743FF002859
:10251000F9D0AE48B04E39460546FEF72DFF31469C
:102520002846FEF737FF0028F9D0A848AA4E012117
:102530000546FEF715FF31462846FEF72BFF00281B
:10254000F9D02778A148A24E07F0FB0701210546E4
:102550002770FEF7F9FE31462846FEF71BFF0028DC
:10256000F9D000224E2199489A4E984DFEF706FF69
:1025700031462846FEF70EFF0028F9D09348964EC4
:1025800039460546FEF7F8FE31462846FEF702FFBB
:102590000028F9D08D48904E01210546FEF7E0FE57
:1025A00031462846FEF7F6FE0028F9D0322000F02A
:1025B000C9FD27788548864E47F004070121054666
:1025C0002770FEF7C1FE31462846FEF7E3FE0028DD
:1025D000F9D000224E217D487E4E7C4DFEF7CEFE86
:1025E00031462846FEF7D6FE0028F9D077487A4EC5
:1025F00039460546FEF7C0FE31462846FEF7CAFEBC
:102600000028F9D07148744E01210546FEF7A8FE56
:1026100031462846FEF7BEFE0028F9D0322000F0F1
:1026200091FD277869486A4E0121054647F0C007A9
:10263000FEF78AFE31462846FEF7ACFE0028F9D0A8
:1026400000224E216148634E604DFEF797FE3146F1
:102650002846FEF79FFE0028F9D05C485E4E3946BA
:102660000546FEF789FE31462846FEF793FE002810
:10267000F9D05648584E01210546FEF771FE314605
:102680002846FEF787FE0028F9D027784F48504E9D
:1026900007F0FB07012105462770FEF755FE31467E
:1026A0002846FEF777FE0028F9D000224E21474841
:1026B000484E464DFEF762FE31462846FEF76AFE5A
:1026C0000028F9D04148444E39460546FEF754FEED
:1026D00031462846FEF75EFE0028F9D03B483E4EC4
:1026E00001210546FEF73CFE31462846FEF752FE24
:1026F0000028F9D0322000F025FD012000F008FD6F
:1027000027783248324E07F0FE0701210546277030
:10271000FEF71AFE31462846FEF73CFE0028F9D0A7
:1027200000224E2129482B4E284DFEF727FE314628
:102730002846FEF72FFE0028F9D02448264E3946B9
:102740000546FEF719FE31462846FEF723FE00280F
:10275000F9D01E48204E01210546FEF701FE314604
:102760002846FEF717FE0028F9D027781748184E9C
:1027700047F00407012105462770FEF7E5FD3146C5
:102780002846FEF707FE0028F9D000224E210F4808
:10279000104E0E4DFEF7F2FD31462846FEF7FAFDCB
:1027A0000028F9D009480C4E39460546FEF7E4FDED
:1027B00031462846FEF7EEFD0028F9D00348064EC4
:1027C00001210546FEF7CCFD08E000BF00540040A3
:1027D00001000300820007008400070031462846FC
:1027E000FEF7D8FD0028F9D0322000F0ABFCBE483F
:1027F0002778BE4E01210546FEF7A6FD3146284644
:10280000FEF7C8FD0028F9D000224E21B648B84E88
:10281000B54DFEF7B3FD31462846FEF7BBFD002857
:10282000F9D0B148B34E39460546FEF7A5FD31460D
:102830002846FEF7AFFD0028F9D0AB48AD4E012188
:102840000546FEF78DFD31462846FEF7A3FD00281C
:10285000F9D02778A448A54E07F0FB0701210546CB
:102860002770FEF771FD31462846FEF793FD0028DC
:10287000F9D000224E219C489D4E9B4DFEF77EFDD7
:1028800031462846FEF786FD0028F9D09648994E35
:1028900039460546FEF770FD31462846FEF77AFDBB
:1028A0000028F9D09048934E01210546FEF758FDC7
:1028B00031462846FEF76EFD0028F9D0322000F0A0
:1028C00041FC27788848894E47F0040701210546D6
:1028D0002770FEF739FD31462846FEF75BFD0028DC
:1028E000F9D000224E218048814E7F4DFEF746FDF3
:1028F00031462846FEF74EFD0028F9D07A487D4E35
:1029000039460546FEF738FD31462846FEF742FDBA
:102910000028F9D07448774E01210546FEF720FDC6
:1029200031462846FEF736FD0028F9D0322000F067
:1029300009FC27786C486D4E0121054647F0600779
:10294000FEF702FD31462846FEF724FD0028F9D0A7
:1029500000224E216448664E634DFEF70FFD31465E
:102960002846FEF717FD0028F9D05F48614E39462A
:102970000546FEF701FD31462846FEF70BFD00280F
:10298000F9D059485B4E01210546FEF7E9FC314676
:102990002846FEF7FFFC0028F9D027785248534E0E
:1029A00007F0FB07012105462770FEF7CDFC3146F5
:1029B0002846FEF7EFFC0028F9D000224E214A48B5
:1029C0004B4E494DFEF7DAFC31462846FEF7E2FC55
:1029D0000028F9D04448474E39460546FEF7CCFC5E
:1029E00031462846FEF7D6FC0028F9D03E48414E35
:1029F00001210546FEF7B4FC31462846FEF7CAFC25
:102A00000028F9D0322000F09DFB012000F080FB6F
:102A100027783548354E47F00807012105462770CD
:102A2000FEF792FC31462846FEF7B4FC0028F9D0A8
:102A300000224E212C482E4E2B4DFEF79FFC314696
:102A40002846FEF7A7FC0028F9D02748294E39462A
:102A50000546FEF791FC31462846FEF79BFC002810
:102A6000F9D02148234E01210546FEF779FC314675
:102A70002846FEF78FFC0028F9D027781A481B4E0D
:102A800007F0FD07012105462770FEF75DFC314682
:102A90002846FEF77FFC0028F9D01348144D002289
:102AA0004E210446FEF76AFC29462046FEF772FCDA
:102AB0000028F9D00C480F4D39460446FEF75CFC5F
:102AC00029462046FEF766FC0028F9D00648094D45
:102AD00001210446FEF744FC29462046FEF75AFC35
:102AE0000028F9D0F8BD00BF0054004001000300E9
:102AF0008200070084000700F8B5BA4CBA4827786E
:102B0000BA4E07F0FE07012105462770FEF71CFCB0
:102B100031462846FEF73EFC0028F9D000224E211F
:102B2000B148B34EB04DFEF729FC31462846FEF7BA
:102B300031FC0028F9D0AC48AE4E39460546FEF7C8
:102B40001BFC31462846FEF725FC0028F9D0A64894
:102B5000A84E01210546FEF703FC31462846FEF744
:102B600019FC0028F9D027789F48A04E47F00407A9
:102B7000012105462770FEF7E7FB31462846FEF7A0
:102B800009FC0028F9D000224E219748984E964D16
:102B9000FEF7F4FB31462846FEF7FCFB0028F9D08F
:102BA0009148944E39460546FEF7E6FB31462846E5
:102BB000FEF7F0FB0028F9D08B488E4E0121054628
:102BC000FEF7CEFB31462846FEF7E4FB0028F9D09D
:102BD000322000F0B7FA84482778844E0121054658
:102BE000FEF7B2FB31462846FEF7D4FB0028F9D0A9
:102BF00000224E217C487E4E7B4DFEF7BFFB3146C6
:102C00002846FEF7C7FB0028F9D07748794E3946A9
:102C10000546FEF7B1FB31462846FEF7BBFB002810
:102C2000F9D07148734E01210546FEF799FB3146F4
:102C30002846FEF7AFFB0028F9D027786A486B4E8C
:102C400007F0FB07012105462770FEF77DFB3146A3
:102C50002846FEF79FFB0028F9D000224E2162484B
:102C6000634E614DFEF78AFB31462846FEF792FB24
:102C70000028F9D05C485F4E39460546FEF77CFBDC
:102C800031462846FEF786FB0028F9D05648594EB3
:102C900001210546FEF764FB31462846FEF77AFB24
:102CA0000028F9D0322000F04DFA27784E484F4ED8
:102CB00047F00407012105462770FEF745FB314622
:102CC0002846FEF767FB0028F9D000224E2146482F
:102CD000474E454DFEF752FB31462846FEF75AFB5C
:102CE0000028F9D04048434E39460546FEF744FBDC
:102CF00031462846FEF74EFB0028F9D03A483D4EB3
:102D000001210546FEF72CFB31462846FEF742FB23
:102D10000028F9D0322000F015FA27783248334ED7
:102D20000121054647F01007FEF70EFB3146284605
:102D3000FEF730FB0028F9D000224E212A482C4E05
:102D4000294DFEF71BFB31462846FEF723FB0028E2
:102D5000F9D02548274E39460546FEF70DFB31468A
:102D60002846FEF717FB0028F9D01F48214E012105
:102D70000546FEF7F5FA31462846FEF70BFB00281C
:102D8000F9D027781848194E07F0FB0701210546AE
:102D90002770FEF7D9FA31462846FEF7FBFA0028DD
:102DA000F9D01148124D00224E210446FEF7E6FAF2
:102DB00029462046FEF7EEFA0028F9D00A480D4DC4
:102DC00039460446FEF7D8FA29462046FEF7E2FACD
:102DD0000028F9D00448074D01210446FEF7C0FA47
:102DE0000AE000BFB80000200054004001000300CA
:102DF000820007008400070029462046FEF7CAFA31
:102E00000028F9D0322000F09DF940F2DC50BDE8F6
:102E1000F84000F097B900BF2DE9F04F90F800900E
:102E200083B0B9F1000F00F06681DFF8E082B34CA7
:102E3000B34FB44EB44D834698F800A001214AEA3E
:102E4000010A204688F800A0FEF77EFA394620469F
:102E5000FEF7A0FA0028F9D000224E212046FEF706
:102E60008DFA31462046FEF795FA0028F9D05146F2
:102E70002046FEF781FA29462046FEF78BFA002805
:102E8000F9D001212046FEF76BFA29462046FEF7CD
:102E900081FA0028F9D098F800A009F0F0034AF070
:102EA000040A0121204688F800A00193FEF74CFA9D
:102EB00039462046FEF76EFA0028F9D000224E214E
:102EC0002046FEF75BFA31462046FEF763FA0028FB
:102ED000F9D051462046FEF74FFA29462046FEF724
:102EE00059FA0028F9D001212046FEF739FA29467F
:102EF0002046FEF74FFA0028F9D0322000F022F9E0
:102F000098F800A0019B0121204643EA0A0AFEF737
:102F10001BFA39462046FEF73DFA0028F9D0002278
:102F20004E212046FEF72AFA31462046FEF732FAB5
:102F30000028F9D051462046FEF71EFA29462046C1
:102F4000FEF728FA0028F9D001212046FEF708FAFA
:102F500029462046FEF71EFA0028F9D098F800A06E
:102F600001210AF0FB0A204688F800A0FEF7ECF9E0
:102F700039462046FEF70EFA0028F9D000224E21ED
:102F80002046FEF7FBF931462046FEF703FA0028FB
:102F9000F9D051462046FEF7EFF929462046FEF7C4
:102FA000F9F90028F9D001212046FEF7D9F9294680
:102FB0002046FEF7EFF90028F9D0322000F0C2F8E1
:102FC00098F800A04FEA09194AF0040A01212046A6
:102FD0005FFA89F988F800A0FEF7B6F9394620466D
:102FE000FEF7D8F90028F9D000224E212046FEF73E
:102FF000C5F931462046FEF7CDF90028F9D05146F3
:103000002046FEF7B9F929462046FEF7C3F9002805
:10301000F9D001212046FEF7A3F929462046FEF704
:10302000B9F90028F9D0322000F08CF898F8003077
:103030000121204649EA0309FEF786F93946204670
:10304000FEF7A8F90028F9D000224E212046FEF70D
:1030500095F931462046FEF79DF90028F9D04946FA
:103060002046FEF789F929462046FEF793F9002805
:10307000F9D001212046FEF773F929462046FEF7D4
:1030800089F90028F9D098F80090012109F0FB098E
:10309000204688F80090FEF757F939462046FEF79B
:1030A00079F90028F9D000224E212046FEF766F972
:1030B00031462046FEF76EF90028F9D049462046F1
:1030C000FEF75AF929462046FEF764F90028F9D0A0
:1030D00001212046FEF744F929462046FEF75AF919
:1030E0000028F9D0322000F02DF81BF8019FB9F12B
:1030F000000F7FF4A1AE03B0BDE8F08F0054004094
:10310000010003008200070084000700B8000020CF
:1031100010B586B0044601A8FEF752F9029B084A92
:10312000A2FB03235B0B04FB03F30093009B2BB177
:10313000009B013B0093009B002BF9D106B010BD12
:103140005917B7D110B586B0044601A8FEF738F973
:10315000029B084AA2FB03239B0D04FB03F300938D
:10316000009B2BB1009B013B0093009B002BF9D1EE
:1031700006B010BD6BCA5F6B30B5012187B005206A
:10318000FEF764F901214FF48040FEF75FF9204C0F
:10319000204D18238DF803304FF400732046694604
:1031A000ADF8003003238DF80230FDF793FE694639
:1031B000204604224FF4806300248DF80320ADF8EC
:1031C0000030FDF787FE4FF4402328464FF4E132EC
:1031D00002A9CDE903430292ADF81440FEF7F6F9D7
:1031E0002846012240F22551FEF756FA28460121D1
:1031F000FEF746FA2522012301A88DF806408DF836
:1032000004208DF80730FEF795FA07B030BD00BFF7
:10321000000801400038014010B540F2255182B04D
:103220001B48FEF75BFA08B902B010BD1848194CEC
:10323000FEF750FAC0B28DF807002378012B15D0A5
:10324000154B16481A789DF80710D2B2C9B28154AE
:103250001A780132D2B21A701A78642A0ED801781C
:103260001A7891420ED00E4BC8221A70084840F2CC
:10327000255102B0BDE81040FEF754BA00221A7082
:103280002270F3E70021012219702270EEE700BFDF
:1032900000380140B900002058010020F40000204F
:1032A00014000020002103E00B4B5B584350043115
:1032B0000A480B4B42189A42F6D30A4A02E000230E
:1032C00042F8043B084B9A42F9D3FDF739FDFDF76C
:1032D000A7FBFDF735FC7047CC3B00080000002041
:1032E000840000208800002060010020FEE700002C
:1032F000014B1868704700BF1C00002070B5CD1C42
:1033000025F0030508350C2D38BF0C25002D064689
:1033100001DBA94203D90C233360002070BD00F00B
:1033200077F8214A1468214691B9204C23681BB9CB
:10333000304600F03DF820602946304600F038F86D
:10334000431C24D10C233360304600F062F8E4E7DC
:103350000B685B1B18D40B2B0FD90B60CD50CC180E
:10336000304600F056F804F10B00231D20F0070052
:10337000C31AD3D05A42E250D0E78C424B6816BFF2
:10338000636013600C46EBE70C464968CCE7C41C4D
:1033900024F00304A04205D0211A304600F008F8BA
:1033A0000130CFD02560DBE7C0000020C400002042
:1033B00038B5064C0023054608462360FDF754FB4C
:1033C000431C02D1236803B12B6038BD5C0100208F
:1033D0000EB400B59CB01DAB029006906FF000419A
:1033E000094807910491094953F8042B0591006895
:1033F000019302A900F0B6F8029B00221A701CB0DB
:103400005DF804EB03B070471C0000200802FFFFCA
:103410007047704738B50546002945D051F8043C3F
:103420000C1F002BB8BFE418FFF7F2FF1F4A136808
:10343000104633B9636014602846BDE83840FFF792
:10344000E8BFA3420CD921686218934204BF1A68EE
:103450005B68636004BF521822600460ECE71346A7
:103460005A680AB1A242FAD919685818A0420BD179
:1034700020680144581882421960DDD110685268F2
:103480005A6001441960D7E702D90C232B60D3E7B7
:10349000206821188A4204BF11685268626004BF24
:1034A000091821605C60C7E738BD00BFC00000207C
:1034B0002DE9F0478E689E4282460C46904699461A
:1034C00037D88A8912F4906F31D0256809696F1A4C
:1034D0006569022305EB450595FBF3F509F1010349
:1034E0003B449D4238BF1D46530530D52946FFF762
:1034F00005FF064650B90C23CAF80030A38943F0F3
:103500004003A3814FF0FF30BDE8F0873A462169C0
:1035100000F0A8FAA38923F4906343F08003A38109
:10352000266165613E44ED1B2660A5604E464E4512
:1035300000D94E4632464146206800F09EFAA36804
:103540009B1BA36023681E4426600020DCE72A46FC
:1035500000F0ACFA06460028E2D121695046FFF798
:1035600059FFC8E72DE9F04F1D468B891F069DB016
:1035700080460C4616460FD50B696BB94021FFF704
:10358000BDFE2060206128B90C23C8F800304FF040
:10359000FF30C8E0402363610023099320238DF8A6
:1035A000293030238DF82A3003954FF0010B374630
:1035B0003D4615F8013B0BB1252B3ED1B7EB060A72
:1035C0000BD05346324621464046FFF771FF01308B
:1035D00000F0A480099B534409933B78002B00F032
:1035E0009D8000234FF0FF32CDE90523049307931C
:1035F0008DF853301A932F46052217F8011B5048B7
:10360000FDF7BEF9049BD0B9D90644BF20228DF83E
:1036100053201A0744BF2B228DF853202A782A2AD8
:1036200015D0079A2F4600200A25394611F8013B8C
:10363000303B092B4DD9B8B10FE02F46B8E7404ACF
:10364000801A0BFA00F0184304903D46D3E7039A22
:10365000111D12680391002A01DB079204E0524217
:1036600043F00203079204933B782E2B0CD17B7816
:103670002A2B33D1039B1A1D1B680392002BB8BF62
:103680004FF0FF33023705932E4D39780322284639
:10369000FDF776F938B14023401B03FA00F0049B94
:1036A000034301370493397827488DF82810062200
:1036B0007E1CFDF765F9002838D0244B13BB039B13
:1036C000073323F0070308330393099B4B44099303
:1036D0006DE705FB023201200F46A6E70023013704
:1036E000059319460A25384610F8012B303A092A65
:1036F00003D9002BC8D00591C6E705FB01210123A2
:103700000746F0E703AB00932246114B04A940465D
:10371000AFF30080B0F1FF3F8146D6D1A3895B06AD
:103720003FF535AF09981DB0BDE8F08F03AB0093AE
:103730002246074B04A9404600F082F8EAE700BFA2
:10374000783B00087E3B0008823B00080000000038
:10375000B13400082DE9F04791461F468A680B698D
:10376000DDF820809342B8BF1346C9F8003091F8C5
:10377000432006460C4612B10133C9F800302368D5
:10378000990642BFD9F800300233C9F800302568E5
:1037900015F0060507D104F1190AE368D9F80020ED
:1037A0009B1AAB4228DC94F843302268003318BFE0
:1037B000012392062DD404F1430239463046C04716
:1037C000013020D02368E568D9F8002003F0060313
:1037D000042B08BFAD1AA36822690CBF25EAE57562
:1037E00000259342C4BF9B1AED184FF000091A340C
:1037F0004D451AD1002008E0012352463946304693
:10380000C047013003D14FF0FF30BDE8F0870135EC
:10381000C3E7E1185A1C302081F84300224494F891
:10382000451082F843100233C5E70123224639468A
:103830003046C0470130E6D009F10109D8E7000061
:103840002DE9F04301F1430C0C46097E85B06E2949
:103850001746064698460C9A00F0B38022D8632992
:1038600036D00AD8002900F0B980582900F08380AA
:1038700004F1420584F8421032E0642901D069293C
:10388000F6D120681368050603F104012AD51B68E8
:103890001160002B03DA2D225B4284F843206F482D
:1038A0000A2239E0732900F09D8008D86F2920D0C2
:1038B0007029DDD1236843F02003236003E07529DC
:1038C00017D07829D4D1782384F84530644855E05E
:1038D0001368191D1B68116004F1420584F8423019
:1038E00001238CE01B68116010F0400F18BF1BB261
:1038F000CFE713682568181D1060280601D51B68DE
:1039000002E06806FBD51B8854486F2914BF0A22C1
:103910000822002184F843106568A560002DC0F2DC
:103920009580216821F004012160002B3DD1002DFC
:1039300040F08E806546082A0BD12368DB0708D546
:10394000236962689A42DEBF302305F8013C05F125
:10395000FF35ACEB05032361CDF800803B4603AA9D
:1039600021463046FFF7F6FE01304DD14FF0FF30D3
:1039700005B0BDE8F083394884F845101368216824
:103980001D1D1B6815600A060BD5CA0744BF41F010
:10399000200121601BB9226822F02002226010223F
:1039A000B7E74D0648BF9BB2EFE76546B3FBF2F1C0
:1039B00002FB1133C35C05F8013D0B460029F5D12C
:1039C000B9E7136825686169181D106028061B682F
:1039D00001D5196002E06A06FBD519800023236136
:1039E0006546B9E71368191D11601D6862680021FA
:1039F0002846FCF7C5FF08B1401B6060636823617F
:103A0000002384F84330A7E723692A463946304625
:103A1000C0470130AAD023689B0713D4E068039BFA
:103A20009842B8BF1846A3E701234A4639463046B4
:103A3000C04701309AD00135E368039A9B1AAB4224
:103A4000F2DCEBE7002504F11909F5E7002BACD116
:103A5000037884F8423004F142056CE7893B0008A2
:103A60009A3B000810B5431E0A44914200D110BD94
:103A700011F8014B03F8014FF7E7884210B501EB4D
:103A8000020307D8421E99420AD011F8014B02F8EE
:103A9000014FF8E78342F5D98118D21AD34200D1F9
:103AA00010BD13F8014D01F8014DF7E7F8B50746D1
:103AB00014460E4621B91146BDE8F840FFF71EBC7A
:103AC00022B9FFF7A7FC25462846F8BD00F014F8F8
:103AD000A0420FD221463846FFF710FC05460028C9
:103AE000F2D031462246FFF7BDFF31463846FFF798
:103AF00091FCE9E73546E7E751F8043C181F002B35
:103B0000BCBF0B58C018704725642E256C6400009C
:103B10006164633A2025640000000000000000009A
:103B20000000000000000000000000000000000095
:103B30000000000000000000000000000000000085
:103B40000000000000000000000000000000000075
:103B50000000000000000000000000000000000065
:103B60000000000000000000000000000000000055
:103B70000000000000000000232D302B2000686CA6
:103B80004C00656667454647003031323334353680
:103B900037383941424344454600303132333435B9
:103BA000363738396162636465660000F8B500BF76
:103BB000F8BC08BC9E467047F8B500BFF8BC08BC0E
:043BC0009E46704766
:043BC40035010008BF
:043BC80011010008DF
:103BCC0000000000010203040102030406070809B7
:103BDC0002040608FA00000015CD5B072000002047
:103BEC0000000000383B0008583B0008183B000858
:103BFC0000000000000000000000000000000000B9
:103C0C0000000000000000000000000000000000A8
:103C1C000000000000000000000000000000000098
:103C2C000000000000000000000000000000000088
:103C3C000000000000000000000000000000000078
:043C4C00ADDEFECA21
:04000005080032A518
:00000001FF
