:020000040800F2
:10000000005000201D3700086537000865370008DC
:1000100065370008653700086537000800000000F4
:10002000000000000000000000000000653700082C
:1000300065370008000000006537000865370008D4
:100040006537000865370008653700086537000820
:100050006537000865370008653700086537000810
:100060006537000865370008653700086537000800
:1000700065370008653700086537000865370008F0
:1000800065370008653700086537000865370008E0
:1000900065370008653700086537000865370008D0
:1000A00065370008653700086537000865370008C0
:1000B00065370008653700086903000865370008E0
:1000C00065370008653700086537000865370008A0
:1000D00065370008712A0008653700086537000891
:1000E0006537000865370008653700080000000024
:1000F0000000000000000000000000000000000000
:0C01000000000000000000005FF808F1A3
:1001100010B5054C237833B9044B13B10448AFF341
:1001200000800123237010BDC000002000000000EB
:100130000C01000808B5034B1BB103490348AFF39A
:10014000008008BD00000000C40000200C01000871
:1001500010B5012186B04FF4007001F0B7F8684681
:1001600000F014FD1A4A00209369012443F00403AF
:10017000936101F02BF800234FF4602201A9154888
:1001800001938DF80830049303928DF809408DF89F
:10019000144000F08DFA0F48214600F0B7FA0D48E0
:1001A00000F0D2FA0B4800F0D5FA0028FAD109483D
:1001B00000F0D4FA074800F0D7FA04460028F9D135
:1001C0000121044800F0A2FA204606B010BD00BF8D
:1001D000001002400024014030B5012185B0042008
:1001E00001F080F801A801F0E1FC012448F69F43EA
:1001F0000E4D01A92846ADF80830019401F06EFAC1
:1002000022462146284601F011FD2146284601F0EC
:10021000F3FC1E22002368468DF80340ADF8002051
:100220008DF8023002F084F905B030BD00080040BE
:10023000F0B5044685B00D464748012100F098FA14
:10024000454A13689B07FCD54348002100F090FA0B
:10025000642300224048C16C013B0A44FBD13F4B60
:10026000D01783FB0232C0EB621002F0E7FD22469A
:1002700006460F462B460020394902F091FC024603
:100280000B463046394602F043FE002206460F4632
:1002900000232046294602F03BFE02460B4630462C
:1002A000394602F07FFC02460B4600202D4902F041
:1002B00059FF00222A4B02F073FC02460B461EA196
:1002C000D1E9000102F04EFF1BA3D3E90023CDE9E1
:1002D0000001DDE9000102F045FFCDE90201DDE9A1
:1002E000020103F059FE16A3D3E90023CDE9020170
:1002F000DDE9020102F036FF13A3D3E90023CDE9C3
:100300000201DDE9020102F04DFCCDE90201DDE967
:1003100002230020124902F025FF0DA3D3E9002398
:10032000CDE90201DDE9020102F03AFCCDE902016A
:10033000DDE9020105B0F0BD00000000006AF840F0
:100340000000000000DCAE4083DBB5DCE1796B3FF0
:100350006666666666127140002401401F85EB5197
:100360000000F03F0000B0402DE9F04F012183B0C4
:10037000554801F0E7FE10B903B0BDE8F08F012148
:10038000514801F0EBFE4CA1D1E90001FFF750FF0D
:1003900006460F464D4BDFF848A10246DAE90089D0
:1003A000C3E9006740460B46494602F0F9FB44A307
:1003B000D3E9002304460D464046494602F0F2FBCD
:1003C00002460B463046394603F032F8002866D123
:1003D000DFF810B1DBE9008900223D4B20462946B9
:1003E00003F026F8B0B100223A4B2046294603F02C
:1003F00001F878B1DAE902232046294602F088FDA7
:1004000002460B464046494602F0CCFB80468946F0
:10041000CBE90089DBE902232046294602F0C0FB34
:1004200000222D4B02F09EFEDAE9042302F070FD5B
:10043000DAE9066702460B463046CDE90023CBE9F0
:100440000423394642464B4602F0D4FF80BBDBE929
:10045000066742464B463046394602F0E9FF38BB54
:1004600046464F46DAE908232046294602F050FD69
:1004700032463B4602F096FBDDE9002302F092FB98
:10048000164BCBE90245C3E9000103F003F84FF036
:10049000804380B2A3F8400003B0BDE8F08F002293
:1004A0000023DFF840B090469946CBE9002393E75C
:1004B000CBE90067D6E700BF7B14AE47E17A843F03
:1004C0009A9999999999A93F0008004058010020EC
:1004D000000008C00000084000408F4028010020B4
:1004E00000000020E000002030B400244FF41F057D
:1004F0003A4B3B49186882B040F0010018605868D8
:100500001A4601405960196821F0847121F4803144
:100510001960196821F480211960596821F4FE01DD
:1005200059609D6000940194196841F4803119600C
:1005300003E0009BB3F5A06F09D0136803F4003308
:100540000193009B01330093019B002BF1D0234BBF
:100550001B6813F4003318BF01230193019B012B87
:1005600006D04FF000621F4B9A6002B030BC70475B
:100570001D491A4B08681A4640F0100008600868C8
:1005800020F003000860086840F002000860596825
:10059000596059685960596841F4806159605968D7
:1005A00021F47C115960596841F4E81159601968C7
:1005B00041F08071196013689B01FCD553680749AD
:1005C00023F003035360536843F0020353604B6806
:1005D00003F00C03082BFAD1C3E700BF0010024060
:1005E0000000FFF800ED00E000200240114A5368CF
:1005F00003F00C03082B0ED153685168C3F38343F7
:10060000C90303F1020310D5526892030DD40A4ABC
:1006100002FB03F300E0084B064A08495268C2F3A4
:1006200003128A5CD3400B617047054A02FB03F357
:10063000F2E700BF0010024000127A0028000020FC
:1006400000093D0008B5174B984206D0164B98425A
:100650001BD0164B98420CD008BD01214FF40070FE
:1006600000F04CFEBDE8084000214FF4007000F09F
:1006700045BE01214FF4004000F040FEBDE80840B7
:1006800000214FF4004000F039BE01214FF480609A
:1006900000F034FEBDE8084000214FF4806000F017
:1006A0002DBE00BF0024014000280140003C014055
:1006B000436830B423F470230C790A6823F4807300
:1006C00043EA04231343436085680A4AD1E902439D
:1006D0002A4023434C79134343EA440383600A7C52
:1006E000C36A013AD2B223F4700343EA0253C362ED
:1006F00030BC7047FDF7F1FF002301220360027454
:1007000003714371C0E90233704700BF836819B9B0
:1007100023F001038360704743F001038360704757
:10072000836819B923F480738360704743F480733E
:1007300083607047C9B243681AB923EA0101416076
:100740007047194341607047836843F00803836032
:10075000704700BF8068C0F3C0007047836843F0F3
:1007600004038360704700BF8068C0F38000704757
:10077000836819B923F4A0038360704743F4A0038E
:10078000836070478068C0F38050704743680139C8
:1007900023F4604343EA413343607047436819B927
:1007A00023F400634360704743F400634360704781
:1007B000092970B41DD90726A1F10A0404EB4404E9
:1007C000C568A640A34025EA06042343062AC36061
:1007D0004FF01F041BD90C2A25D90D3A02EB8202D7
:1007E000C36A9440914023EA04021143C16270BC81
:1007F0007047072501EB41060469B54024EA05046A
:10080000B3402343062A03614FF01F04E3D8013AA3
:1008100002EB8202436B9440914023EA04021143AD
:10082000416370BC7047073A02EB8202036B94404D
:10083000914023EA04021143016370BC704700BF7A
:10084000836819B923F480138360704743F48013DD
:1008500083607047C06C80B2704700BF014B18685E
:10086000704700BF4C240140436819B923F48063EA
:100870004360704743F4806343607047436819B92D
:1008800023F480534360704743F4805343607047C0
:10089000836823F4E043194381607047836819B982
:1008A00023F400438360704743F400438360704740
:1008B000836819B923F402138360704743F4021369
:1008C000836070478068C0F340507047092970B456
:1008D0001AD8072501EB41060469B540B34024EA64
:1008E0000504234303611F24836B0232C3F30155C4
:1008F000521BD2B202EB8202944023EA04039140DD
:100900001943816370BC70470726A1F10A0404EB08
:100910004404C568A640A34025EA06042343C360F7
:10092000E1E700BF836B013923F4401343EA01532D
:1009300083637047002382B001930190019B1944A7
:100940000191019B1A6002B0704700BF002382B082
:1009500001930190019B283319440191019B186870
:1009600080B202B0704700BF436823F4400323F411
:10097000007319434160704741628262704700BF53
:10098000436823F01F03194341607047054A936889
:1009900018B923F400039360704743F40003936095
:1009A000704700BF002401400368194214BF0120B2
:1009B00000207047C9430160704700BF436800686A
:1009C00010EA112004D0C9B2194214BF012000203E
:1009D000704700BF6FEA11210160704708B52F4BC7
:1009E00098421CD02E4B984223D02E4B98422AD0AE
:1009F0002D4B984231D02D4B984206D02C4B98422B
:100A000041D02C4B984232D008BD0121402000F04B
:100A100075FCBDE808400021402000F06FBC0121BA
:100A2000042000F06BFCBDE808400021042000F029
:100A300065BC0121082000F061FCBDE808400021F0
:100A4000082000F05BBC0121102000F057FCBDE83D
:100A500008400021102000F051BC0121202000F0AE
:100A60004DFCBDE808400021202000F047BC0121DA
:100A70004FF4807000F042FCBDE8084000214FF4C4
:100A8000807000F03BBC0121802000F037FCBDE805
:100A900008400021802000F031BC00BF0008014068
:100AA000000C0140001001400014014000180140FA
:100AB000001C014000200140012108B5084600F05B
:100AC0001DFCBDE808400021012000F017BC00BF5C
:100AD0002DE9F041CD78EB0648BF8B78098805F009
:100AE0000F0748BF1F4311F0FF0F21D000234FF025
:100AF000010C4FF00F08066802E00133082B16D0F6
:100B00000CFA03F232EA0104F7D19C0008FA04FE61
:100B100026EA0E0607FA04F4282D46EA040632D027
:100B2000482D03F1010308BF0261082BE8D10660DC
:100B3000FF2924D908234FF0010C4FF00F08466815
:100B400002E00133102B19D00CFA03F434EA01024D
:100B5000F7D103F18042083A920008FA02FE26EA31
:100B60000E0607FA02F2282D46EA020609D0482DA1
:100B700003F1010308BF0461102BE5D14660BDE815
:100B8000F0814461DDE74261B7E700BF4FF6FF71D6
:100B90000222042301808270C37070478368194267
:100BA00014BF012000207047806880B2704700BFEA
:100BB000C368194214BF012000207047C06880B28A
:100BC000704700BF01617047416170470AB94161D8
:100BD00070470161704700BFC160704741F48033C6
:100BE00083618161836183698369704710B44FF6C3
:100BF0008074044A13682340194341EA00111160CC
:100C000010BC704700000140014B1860704700BFE6
:100C10001C0020420028194B00F44012B4BFDB69CD
:100C20005B68B2F5401F30B484B21ED0C20213D547
:100C30000322C0F30345AA4023EA020343F0706392
:100C400019B1420D1201944023430C4A0028B4BF4D
:100C5000D361536030BC7047420D120104FA02F2B6
:100C600023EA020343F07063EAE7044D23F0706364
:100C70006A6822F070626A60E2E700BF000001402B
:100C800010B40F2401F0FC0303F1804303F580331B
:100C900001F003019A6889008C4022EA04029A60FC
:100CA0009A6800FA01F11143996010BC704700BFC7
:100CB000014B1860704700BFDC00204208B50D4BA7
:100CC000012198420AD04FF4800000F023FBBDE8D8
:100CD000084000214FF4800000F01CBB4FF40010CE
:100CE00000F018FBBDE8084000214FF4001000F0B0
:100CF00011BB00BF00540040F0B504460D4687B05C
:100D0000868801A800F090FA03982B4926F03F0648
:100D1000A1FB00313604890C360C8FB23E43A6800D
:100D200022882B6822F00102244E1204120CB342D6
:100D300022801BD85B00B0FBF3F39BB2042B38BFBF
:100D4000042301372784A38322881D4B42F001022C
:100D500022802288A9886E8928891340AA89314374
:100D60000B4302432380228107B0F0BD4BF6FF7294
:100D7000EE8896421AD003EB830303EB8303B0FBA8
:100D8000F3F39BB243F48043C3F30B020AB943F07D
:100D900001034FF4967202FB01F10A4A43F4004347
:100DA000A2FB0121890901312184CCE703EB430334
:100DB000B0FBF3F39BB2E7E783DE1B43A0860100A1
:100DC000F5FBFFFFD34D621010B4002241F28834CE
:100DD0004FF4804303498260C0E90041838110BC25
:100DE000704700BF0000FFBF038829B923F001034B
:100DF0001B041B0C0380704743F001030380704702
:100E0000838829B923F400631B041B0C838070477B
:100E100043F4006383807047838829B923F48053A7
:100E20001B041B0C8380704743F4805383807047FE
:100E3000038829B923F480731B041B0C03807047BB
:100E400043F4807303807047038829B923F4007347
:100E50001B041B0C0380704743F40073038070472E
:100E6000038829B923F480631B041B0C038070479B
:100E700043F4806303807047838901F0FE019BB2D5
:100E800023F0FE030B438381704700BF838929B998
:100E900023F001031B041B0C8381704743F0010303
:100EA00083817047038829B923F040031B041B0C7E
:100EB0000380704743F040030380704783881AB96A
:100EC00023EA01018180704719438180704700BF88
:100ED00001827047008AC0B2704700BF22B901F09A
:100EE000FE0189B20182704741F0010189B201829D
:100EF000704700BF002382B001930190019B194409
:100F00000191019B188802B0704700BF038819B98E
:100F1000C3F30E030380704743F40043038070471C
:100F20000388B1F5006F1BBF23F400631B0443F477
:100F300000631B0C038070470388B1F5005F1BBF83
:100F400023F400531B0443F400531B0C038070472D
:100F5000038829B923F480531B041B0C03807047BA
:100F600043F4805303807047FFF7DABF038829B941
:100F700023F020031B041B0C0380704743F0200365
:100F800003807047008B000A704700BF038829B9AF
:100F900023F010031B041B0C0380704743F0100365
:100FA00003807047038829B123F080031B041B0CC6
:100FB0000380704743F0800303807047838BB1F553
:100FC000804F1DBF23F480431B041B0C43F480435C
:100FD00083837047838A028B21F07F4043EA024378
:100FE0001840401AB0FA80F040097047838A008B9D
:100FF00043EA004020F07F40704700BF002382B0EA
:101000000A0F0093019301900092009B21F07F4111
:1010100053B1019B14330193019B1B680B4214BF16
:101020000120002002B07047019B090C1833019386
:10103000F2E700BFC94389B2818270478388808A02
:101040009BB2084006D003F4E06313EA114314BFD7
:1010500001200020704700BFC94389B281827047D8
:101060004FF41F000C4B0D4A196841F00101196043
:1010700059680A405A601A6822F0847222F4803259
:101080001A601A6822F480221A605A6822F4FE025A
:101090005A609860704700BF001002400000FFF8DF
:1010A0000C4BB0F5803F1A6822F480321A601A683F
:1010B00022F480221A6008D0B0F5802F04D11A687B
:1010C00042F4A0221A60704770471A6842F48032D6
:1010D0001A60704700100240002382B0094A019351
:1010E000136813F4003F019B03F101030193019B7B
:1010F00002D1B3F5A06FF3D1024B1868C0F34040A2
:1011000002B0704700100240034A136823F0F8034E
:1011100043EAC0001060704700100240014B1860A5
:10112000704700BF00004242034A536823F47C1317
:10113000194301435160704700100240014B186091
:10114000704700BF60004242034A536823F0030324
:1011500018435060704700BF00100240024B5868AF
:1011600000F00C00704700BF00100240034A5368B3
:1011700023F0F00318435060704700BF0010024096
:10118000034A536823F4E06318435060704700BF7C
:1011900000100240034A536823F4605343EAC0003E
:1011A0005060704700100240044A137819B923EACE
:1011B000000010707047184310707047091002400B
:1011C000014B1860704700BFD8004242034A536881
:1011D00023F4404318435060704700BF00100240A2
:1011E0000022064B01281A701A7005D0042802D17B
:1011F00005221A707047704718707047201002401F
:10120000014B1860704700BF80044242024A136AD3
:1012100018431062704700BF00100240014B186075
:10122000704700BF3C0442421E4A10B4536803F0AA
:101230000C03082B0FD153685168C3F38343C903D0
:1012400003F1020328D55268920325D4164A02FB03
:1012500003F3036001E0144B03601249134A4C6826
:10126000C4F30314145DE34043604C68C4F30224E8
:10127000145D23FA04F484604C68C4F3C224145D42
:10128000E340C360496810BCC1F381310A44127C59
:10129000B3FBF2F303617047054A02FB03F30360FB
:1012A000DBE700BF0010024000127A003C00002083
:1012B00000093D00044A536919B923EA000050614E
:1012C000704718435061704700100240044A936908
:1012D00019B923EA00009061704718439061704784
:1012E00000100240044AD36919B923EA0000D06112
:1012F00070471843D061704700100240044AD36819
:1013000019B923EA0000D06070471843D0607047D5
:1013100000100240044A136919B923EA0000106161
:10132000704718431061704700100240014B18606D
:10133000704700BF40044242014B1860704700BF35
:101340004C004242014B1870704700BF071002402A
:101350004309012B0BD0022B094B00F01F000CBFDF
:101360001B6A5B6A23FA00F000F001007047044B2F
:1013700000F01F001B6823FA00F000F00100704726
:1013800000100240024A536A43F080735362704770
:1013900000100240034B9B68184214BF012000203C
:1013A000704700BF00100240014B1870704700BF2B
:1013B0000A10024070B4058C1A4E25F001052D0468
:1013C0002D0C0584048B42EA031324F0F304240457
:1013D000240C058C1C43B04241F00101A4B2ADB213
:1013E00019D0114B984216D0B0F1804F13D0A3F50D
:1013F000983398420FD003F5806398420BD003F5E1
:101400008063984207D025F00A0343EA010504836C
:10141000058470BC704725F002050D4304830584E4
:1014200070BC7047002C01400034014070B440F69D
:10143000FF45048C120224F010042404240C0484BC
:10144000048B184E42EA03332540048C2B430A01D7
:10145000B0429BB2A4B292B21AD0134DA84217D098
:10146000B0F1804F14D0A5F59835A84210D005F5FD
:101470008065A8420CD005F58065A84208D024F00C
:10148000A00441F010010C430383048470BC704736
:1014900024F0200442F0100214430383048470BC3F
:1014A000704700BF002C01400034014008B57B4B61
:1014B000984241D0B0F1804F4AD0794B984251D0F8
:1014C000784B984258D0784B98422BD0774B984223
:1014D0005CD0774B984263D0764B984276D0764B6F
:1014E00098427FD0754B984264D0754B984200F07B
:1014F0008580744B984200F08D80734B984200F0C9
:101500009380724B984200F09980714B984200F0A2
:10151000A180704B984200F0B5806F4B984200F06C
:10152000A58008BD01210820FFF7F4FEBDE80840B2
:1015300000210820FFF7EEBE01214FF40060FFF705
:10154000DDFEBDE8084000214FF40060FFF7D6BE85
:1015500001210846FFF7DEFEBDE80840002101201A
:10156000FFF7D8BE01210220FFF7D4FEBDE80840F6
:1015700000210220FFF7CEBE01210420FFF7CAFEA2
:10158000BDE8084000210420FFF7C4BE012110205F
:10159000FFF7C0FEBDE8084000211020FFF7BABEEB
:1015A00001212020FFF7B6FEBDE8084000212020E1
:1015B000FFF7B0BE01214FF48010FFF79FFEBDE89A
:1015C000084000214FF48010FFF798BE01214FF42E
:1015D0000050FFF793FEBDE8084000214FF4005093
:1015E000FFF78CBE01214FF40020FFF787FEBDE816
:1015F000084000214FF40020FFF780BE01214FF486
:101600000010FFF77BFEBDE8084000214FF40010FA
:10161000FFF774BE01214020FFF77CFEBDE80840C3
:1016200000214020FFF776BE01218020FFF772FEE7
:10163000BDE8084000218020FFF76CBE01214FF477
:101640008070FFF767FEBDE8084000214FF480700E
:10165000FFF760BE01214FF48030FFF74FFEBDE879
:10166000084000214FF48030FFF748BE01214FF4BD
:101670008020FFF743FEBDE8084000214FF48020A2
:10168000FFF73CBE01214FF40030FFF737FEBDE805
:10169000084000214FF40030FFF730BE002C01401D
:1016A0000004004000080040000C00400010004012
:1016B0000014004000340140004C01400050014043
:1016C0000054014000180040001C00400020004071
:1016D000004001400044014000480140274A03887F
:1016E000904270B49BB212D002F5006290420ED0CC
:1016F000B0F1804F0BD0A2F59832904207D002F59E
:101700008062904203D002F58062904203D14A8801
:1017100023F0700313431A4D8C88A8420A8815D011
:1017200005F58065A84211D0CE8823F440739BB2A2
:1017300005F58C353343A8420380848502850CD19E
:1017400070BC0B7A038601238382704703808485F3
:101750000285012370BC838270470A4B9842EFD008
:1017600003F540639842EBD003F580639842E7D0DD
:1017700003F580639842E3D0EBE700BF002C014003
:101780000010004000340140038CF0B423F001034A
:101790001B041B0C0D890384028C4E8822F002026C
:1017A00084881204038B3543120C23F073032A43FD
:1017B000164D1B040E881B0CA842A4B243EA060374
:1017C0000FD005F50065A8420BD005F54065A8428D
:1017D00007D005F58065A84203D005F58065A842CD
:1017E0000DD14E8922F008028D89CF8932438E882F
:1017F00024F4407422F004023D4332432C43C98850
:1018000084800383F0BC818602847047002C0140F1
:10181000028CF0B422F010021204120C0D89028422
:10182000038C4E88848823F02003028B1B043543ED
:1018300022F4E6421B0C43EA051312040E88144DF1
:10184000120C42EA0622A8429BB2A4B292B20AD07B
:1018500005F50065A84206D0C98884800283F0BCE3
:101860000187038470474FF6BF754F8923F08003CB
:1018700043EA07138E89CF891D408B8824F4406486
:101880003E4345EA031344EA86049BB2A4B2E3E76D
:10189000002C0140028CF0B422F480721204120C6D
:1018A0000D890284038C4E8823F4007384881B0402
:1018B000828B35431B0C43EA052322F07302154D3E
:1018C00012040E88120CA8429BB2A4B242EA06028D
:1018D0000AD005F50065A84206D0C98884808283B5
:1018E000F0BC8187038470474FF6FF354F8923F49E
:1018F000006343EA07238E89CF891D408B8824F437
:1019000040543E4345EA032344EA06149BB2A4B282
:10191000E3E700BF002C0140028C70B422F4805237
:101920001204120C0D890284038C4E88848823F4DF
:101930000053828B1B04354322F4E6421B0C43EA1E
:10194000053312040E880E4D120C42EA0622A842FC
:101950009BB2A4B292B20BD005F50065A84207D0A5
:10196000C9888480828370BCA0F8401003847047CB
:101970008D8924F4804444EA8514A4B2F0E700BFC2
:10198000002C0140F8B50D460E88AA8849882B899D
:101990000446002E4AD0042E00F09480082E52D027
:1019A00040F6FF46008C1B0320F480500004000C1E
:1019B0002084A08B43EA022206EA0003494E208CD1
:1019C0001A43B4424FEA013392B280B29BB219D0AB
:1019D00006F50066B44215D0B4F1804F12D0A6F5DA
:1019E0009836B4420ED006F58066B4420AD006F5A9
:1019F0008066B44206D047F6FF531840084340F4CF
:101A0000805304E020F4005040F480500343A2834C
:101A10002384A38BEA8823F440631B041B0CA38359
:101A2000A38B43EA02239BB2A383F8BDFFF7C2FC5A
:101A3000038BEA8823F00C031B041B0C0383038B2A
:101A400013430383F8BD008C264F20F480700004FC
:101A5000000C2084A08B268C80B220F0F30002437F
:101A600042EA03130802BC429BB2B2B280B217D062
:101A70001D4EB44214D0B4F1804F11D0A6F5983663
:101A8000B4420DD006F58066B44209D006F58066F2
:101A9000B44205D022F42062114341F4807204E084
:101AA00022F4007242F480720243A3832284A38B47
:101AB000EA8823F00C031B041B0CA383A38B1343A2
:101AC000A383F8BDFFF7B2FC038BEA8823F44063DD
:101AD0001B041B0C0383038B43EA02239BB2038387
:101AE000F8BD00BF002C014000340140F8B50D46A0
:101AF0004988AA880029B5F800C014BF002602262C
:101B0000012A14BF012702272B89BCF1000F1DD029
:101B1000FFF78CFC038BE98823F440631B041B0C48
:101B20000383038B3A4643EA01239BB20383314686
:101B30002B89FFF73FFC038BEA8823F00C031B047F
:101B40001B0C0383038B13430383F8BDFFF732FCA5
:101B5000038BE98823F00C031B041B0C0383038B0A
:101B60003A460B43038331462B89FFF75FFC038B17
:101B7000EA8823F440631B041B0C0383038B43EAB2
:101B800002239BB20383F8BD10B40B884C888A886B
:101B90002343CC8813430A8923434C8913438A89FE
:101BA00023431343A0F8443010BC704700234FF682
:101BB000FF7203808280C38043800372704700BF3E
:101BC0000023038043808380C3800381438183811A
:101BD000C381704700230122038082804380C38039
:101BE000038170470023038043808380C380038187
:101BF00043818381704700BF038829B923F0010323
:101C00001B041B0C0380704743F0010303807047E3
:101C1000B0F8443021B9C3F30E03A0F84430704744
:101C200043F40043A0F84430704700BF83891AB9D9
:101C300023EA01018181704719438181704700BF08
:101C4000818270470A43A0F848207047FFF7EEBF33
:101C5000038923F007031B041B0C0381704700BF9B
:101C6000038923F070031B041B0C194301810389B2
:101C700043F0070303817047602938B50D460446D9
:101C800011464FF001020DD0FFF794FB218921F09E
:101C900070010904090C29432181238943F00703BA
:101CA000238138BDFFF7C2FBF0E700BF10B4048901
:101CB00042EA03231943E4B2214389B20181038933
:101CC00010BC23F077031B041B0C43F07703038144
:101CD000704700BF10B4048942EA03231943E4B2F9
:101CE000214389B20181038910BC43F480430381FD
:101CF000704700BF10B404890A43E4B242EA0323E8
:101D000023439BB2038110BC704700BF01858282D0
:101D1000704700BF038823F070031B041B0C19439A
:101D200001807047038923F070031B041B0C1943C7
:101D300001817047F0B40589078B048C0B4E24F0A9
:101D4000220425F00705240442EA03133E402D0433
:101D5000240C2D0C1C4346F480732943A4B243F099
:101D60000103018103830484F0BC7047FCFCFFFF86
:101D7000038B23F070031B041B0C19430183704772
:101D8000038B23F4E0431B041B0C43EA012189B2BB
:101D900001837047838B23F070031B041B0C1943D2
:101DA00081837047838B23F4E0431B041B0C43EABD
:101DB000012189B281837047038829B923F0800308
:101DC0001B041B0C0380704743F0800303807047A3
:101DD000838829B923F004031B041B0C83807047FC
:101DE00043F0040383807047838829B923F00803F4
:101DF0001B041B0C8380704743F0080383807047EB
:101E0000838829B923F001031B041B0C83807047CE
:101E100043F0010383807047038B23F008031B0406
:101E20001B0C194301837047038B23F400631B04CD
:101E30001B0C43EA012189B201837047838B23F095
:101E400008031B041B0C194381837047838B23F405
:101E500000631B041B0C43EA012189B28183704794
:101E6000038B23F004031B041B0C194301837047ED
:101E7000038B23F480631B041B0C43EA012189B20A
:101E800001837047838B23F004031B041B0C19434D
:101E900081837047838B23F480631B041B0C43EA0C
:101EA000012189B281837047038B23F080031B04D7
:101EB0001B0C194301837047038BC3F30E0343EAE2
:101EC000012189B201837047838B23F080031B04B7
:101ED0001B0C194381837047838BC3F30E0343EAC2
:101EE000012189B281837047038C23F002031B0414
:101EF0001B0C194301847047038C23F008031B0457
:101F00001B0C194301847047038C23F020031B042E
:101F10001B0C43EA011189B201847047038C23F042
:101F200080031B041B0C43EA011189B20184704732
:101F3000038C23F400731B041B0C43EA012189B2B8
:101F400001847047038C23F400631B041B0C43EAD9
:101F5000012189B201847047038C23F400531B04D0
:101F60001B0C43EA013189B20184704710B401248B
:101F7000038C8C4023EA04030384038C02FA01F1EE
:101F8000194389B2018410BC704700BF10B4042407
:101F9000038C8C4023EA04030384038C02FA01F1CE
:101FA000194389B2018410BC704700BF10B40124EA
:101FB000038C8C4023EA040321F0080403841830C6
:101FC0006CB10439C1F34E010B58120223F4E04303
:101FD0000B500B5892B21A430A5010BC7047490874
:101FE0000B5810BC23F070030B500B581A430A50C7
:101FF000704700BF038829B923F002031B041B0CA0
:102000000380704743F0020303807047038829B9B7
:1020100023F004031B041B0C0380704743F00403EC
:1020200003807047838829B923F080031B041B0CAD
:102030008380704743F0800383807047038823F0D8
:1020400008031B041B0C038003881943018070479D
:10205000838823F070031B041B0C8380838819433F
:1020600081807047038923F007031B041B0C038145
:102070000389194301817047038923F080031B04FE
:102080001B0C0381038919430181704781847047C8
:1020900081857047818670470187704781877047C7
:1020A000A0F84010704700BF038B23F00C031B0403
:1020B0001B0C0383038B194301837047038B23F4A9
:1020C00040631B041B0C0383038B43EA012189B289
:1020D00001837047838B23F00C031B041B0C838349
:1020E000838B194381837047838B23F440631B04E4
:1020F0001B0C8383838B43EA012189B28183704760
:10210000038823F440731B041B0C038003881943CA
:1021100001807047808E7047008F7047808F7047B6
:10212000B0F84000704700BF808C7047008D70474A
:10213000038A194214BF012000207047C94389B2A5
:1021400001827047038A828911EA030092B203D0A8
:102150000A4214BF01200020704700BFC94389B262
:102160000182704708B5264B984218D0254B9842FB
:1021700021D0254B98422AD0244B984233D0244B6F
:10218000984200D008BD01214FF48010FFF7C2F83B
:10219000BDE8084000214FF48010FFF7BBB80121D3
:1021A0004FF48040FFF7AAF8BDE8084000214FF443
:1021B0008040FFF7A3B801214FF40030FFF7AAF8E1
:1021C000BDE8084000214FF40030FFF7A3B801211B
:1021D0004FF48020FFF79EF8BDE8084000214FF43F
:1021E0008020FFF797B801214FF40020FFF792F805
:1021F000BDE8084000214FF40020FFF78BB800BF76
:10220000003801400044004000480040004C0040BD
:102210000050004030B50D460446038ACA889BB280
:1022200023F4405313438A8903828089234B89888E
:10223000034028890B43698903430B43A381A38A85
:1022400087B09BB223F44073134301A8A382FEF727
:10225000EBFFDDE903311A482A68844208BF0B46C8
:10226000A18903EB830309044CBF5200920003EBE6
:102270008303B3FBF2F364221248A589A0FB03C1D8
:10228000490902FB11332A044FEA01110AD41B0148
:102290003233A0FB0323C3F343130B439BB22381CD
:1022A00007B030BDDA003232A0FB0232C2F3421274
:1022B00042EA01039BB2238107B030BDF3E9FFFF7F
:1022C000003801401F85EB5100234FF416514FF4A5
:1022D00040220160C0E901328381704730B40B882D
:1022E0004D888C88028A2B43C988234392B20B43C2
:1022F00022F470621343038230BC704700230380D2
:1023000043808380C3807047838929B923F40053B5
:102310001B041B0C8381704743F400538381704777
:10232000012310B401F01F04C1F34211012903FA83
:1023300004F30FD002290CBF103014302AB9026800
:1023400010BC22EA030303607047026810BC134309
:10235000036070470C30F1E7838A1AB923EA010160
:102360008182704719438182704700BF038A23F03E
:102370000F031B041B0C0382038A1943018270475D
:10238000838923F400631B041B0C83818389194315
:1023900081817047838929B923F002031B041B0C38
:1023A0008381704743F0020383817047038A23F0DF
:1023B00020031B041B0C0382038A1943018270470C
:1023C000038A29B923F480431B041B0C0382704742
:1023D00043F4804303827047C1F308018180704752
:1023E0008088C0F308007047838943F0010383812C
:1023F000704700BF038BDBB20383038B43EA0121E9
:1024000001837047038B03F47F430383038B1943DA
:1024100001837047838A29B923F020031B041B0C16
:102420008382704743F0200383827047838A29B9EF
:1024300023F010031B041B0C8382704743F010032E
:1024400083827047838A29B923F008031B041B0C7D
:102450008382704743F0080383827047838919B9E8
:10246000C3F30E038381704743F4004383817047B5
:10247000838A29B923F400631B041B0C83827047F1
:1024800043F4006383827047838A23F004031B04B0
:102490001B0C8382838A194381827047838A29B9FE
:1024A00023F002031B041B0C8382704743F00203DA
:1024B000838270470388194214BF012000207047AF
:1024C000C94389B2018070470123C1F3421210B49D
:1024D000012A01F01F0403FA04F314D0022A0CBFEE
:1024E000028A828A1340028892B24BB10123090A00
:1024F00003FA01F10A4214BF1846002010BC7047CD
:10250000184610BC704782891340ECE70123090A82
:102510008B40DB439BB20380704700BF40F0BF603D
:10252000024B40F40030D860704700BF00ED00E07F
:10253000F0B401240178C37801F01F0294404E09E1
:102540002BB90F4B203643F82640F0BC70470D4B9B
:102550004778DD688278E8430F23C0F30220C0F19A
:102560000405C34007FA05F513402B43044A1B0139
:10257000DBB2114481F8003342F82640F0BC7047CA
:1025800000E100E000ED00E021F0604121F07F017A
:10259000014B01439960704700ED00E0044A136964
:1025A00019B923EA000010617047184310617047A1
:1025B00000ED00E0044A042813680CBF43F0040354
:1025C00023F004031360704710E000E0012130B5F0
:1025D000084687B0FEF77AFE01210220FEF71AFBBB
:1025E00001214FF40010FEF77DFE01210820FEF7C7
:1025F0006DFE4FF4407403221C2301A90F48ADF86F
:1026000004408DF806208DF80730FEF761FA4FF090
:1026100080614FF480450A4C0A4A0B4B20460491D6
:102620000121CDE90223ADF81450FEF7DDFB204671
:1026300002A9FEF761FB07B030BD00BF000C0140EE
:1026400000540040A08601000000FFBF70B50546A1
:102650000E4617480121FEF7EBFB164C21461448A5
:10266000FEF7B8FC0028F9D0314600221048FEF7EA
:1026700035FC114C21460E48FEF7ACFC0028F9D081
:1026800029460B48FEF724FC0C4C21460848FEF76F
:10269000A1FC0028F9D001210548FEF7D5FB074D24
:1026A000034C29462046FEF795FC0028F9D070BD62
:1026B000005400400100030082000700840007006E
:1026C00038B505460F4C4E21237843F004031846D5
:1026D0002370FFF7BBFF322000F0E6F820784E2190
:1026E00040EA0510C0B2FFF7B1FF23784E2103F096
:1026F000FB0318462370FFF7A9FFBDE838403220DE
:1027000000F0D2B80001002010B50D4A0446107840
:1027100071B140F0010318464E211370FFF796FF88
:102720002009FFF7CDFF2046BDE81040FFF7C8BFE6
:1027300000F0FE0318464E211370FFF787FFEFE706
:10274000000100200121FFF7DFBF00BF03291DD8D2
:10275000DFE801F017100902543060F07F00C0B2CA
:102760000021FFF7D1BF143060F07F00C0B200211C
:10277000FFF7CABF403060F07F00C0B20021FFF712
:10278000C3BF40F080000021FFF7BEBF704700BF0D
:1027900010B50F2000F06EF80320FFF791FF042022
:1027A00000F068F80320FFF78BFF642000F07CF84E
:1027B0000320FFF785FF012000F05CF80220FFF7FF
:1027C0007FFF012000F056F800212820FFF79CFF32
:1027D000012000F04FF800210C20FFF795FF0120A9
:1027E00000F048F80C4C00210620FFF78DFF012077
:1027F00000F040F823784E2143F008031846237078
:10280000FFF724FF23784E2103F0FD0323701846C1
:10281000BDE81040FFF71ABF0001002008B50120F5
:102820000021FFF771FFBDE8084040F2DC5000F0E6
:102830003BB800BF10B50446007830B10121FFF766
:1028400063FF14F8010F0028F8D110BD00F0070055
:10285000C00038B540F040000D460021FFF754FF9E
:102860006C1E073514F8010F0121FFF74DFFAC4234
:10287000F8D138BD10B5044686B001A8FEF7D4FCE7
:10288000029B084AA2FB03235B0B04FB03F30093A8
:10289000009B2BB1009B013B0093009B002BF9D1C7
:1028A00006B010BD5917B7D110B5044686B001A8BF
:1028B000FEF7BAFC029B084AA2FB03239B0D04FB14
:1028C00003F30093009B2BB1009B013B0093009B03
:1028D000002BF9D106B010BD6BCA5F6B00B587B095
:1028E00001A8FEF7A1FC029B0093009807B05DF8D9
:1028F00004FB00BFF8B5C7B2C0F30726C0F3074515
:10290000040E40211448FFF7D5FD0028F9D03946C0
:102910001148FFF761FD40210F48FFF7CBFD00286C
:10292000F9D031460C48FFF757FD40210A48FFF720
:10293000C1FD0028F9D029460748FFF74DFD402189
:102940000548FFF7B7FD0028F9D02146BDE8F8405B
:102950000148FFF741BD00BF0038014010B44218E4
:1029600093785478415C1B0403EB0423D0780B4428
:1029700003EB006010BC704710B5012182B0082045
:10298000FEF7A4FC01A8FEF701F903244FF48042EE
:10299000102301A905488DF80640ADF804208DF8F4
:1029A0000730FEF795F802B010BD00BF000C0140E3
:1029B00010B5064C2068FFF79DFF2068FFF79AFFCF
:1029C0002068BDE81040FFF795BF00BF5000002011
:1029D00030B5012187B00520FEF778FC01214FF4C6
:1029E0008040FEF773FC18214FF4007203231E4C45
:1029F0008DF8031020466946ADF800208DF80230AE
:102A0000FEF766F804224FF48063694620468DF88D
:102A100003200024ADF80030FEF75AF84FF44023AD
:102A20004FF4E132114D02A928460493CDE9022466
:102A3000ADF81440FFF7EEFB2846012240F2255185
:102A4000FFF76EFC28460121FFF75EFC25220123DB
:102A500001A88DF806408DF804208DF80730FFF7A7
:102A600067FD07B030BD00BF0008014000380140DD
:102A700010B540F2255182B01B48FFF725FD08B97B
:102A800002B010BD1848FFF7ABFC184CC0B28DF86F
:102A900007002378012B15D0154B16481A789DF89E
:102AA0000710D2B2C9B281541A780132D2B21A7068
:102AB0001A78642A0ED801781A7891420ED0C8226A
:102AC0000D4B1A7140F22551074802B0BDE8104085
:102AD000FFF71CBD00221A702270F3E700210122CB
:102AE00019702270EEE700BF00380140010100209C
:102AF000C40100206001002050000020024B5B78E0
:102B0000012B00D0704753E76001002010B5074C3F
:102B10002378012B00D010BD054B5B78012B02D030
:102B20000023237010BDFFF743FFF9E701010020E8
:102B30006001002038B50B780D4604466BB140218A
:102B40002046FFF7B7FC0028F9D029782046FFF788
:102B500043FC15F8013F002BF1D138BD044A05496B
:102B60001368002B08BF0B461844106018467047C6
:102B700004010020CC0100204FF0FF30704700BF5F
:102B80004FF4005300204B60704700BF1046704761
:102B900010467047FEE700BF81F0004102E000BF31
:102BA00083F0004330B54FEA41044FEA430594EA0D
:102BB000050F08BF90EA020F1FBF54EA000C55EA48
:102BC000020C7FEA645C7FEA655C00F0E2804FEA19
:102BD0005454D4EB5555B8BF6D420CDD2C4480EAFB
:102BE000020281EA030382EA000083EA010180EA2B
:102BF000020281EA0303362D88BF30BD11F0004F79
:102C00004FEA01314FF4801C4CEA113102D04042AE
:102C100061EB410113F0004F4FEA03334CEA1333E9
:102C200002D0524263EB430394EA050F00F0A78001
:102C3000A4F10104D5F1200E0DDB02FA0EFC22FAFC
:102C400005F2801841F1000103FA0EF2801843FAF0
:102C500005F359410EE0A5F120050EF1200E012AE1
:102C600003FA0EFC28BF4CF0020C43FA05F3C0181F
:102C700051EBE37101F0004507D54FF0000EDCF198
:102C8000000C7EEB00006EEB0101B1F5801F1BD341
:102C9000B1F5001F0CD349085FEA30004FEA3C0C45
:102CA00004F101044FEA445212F5800F80F09A803B
:102CB000BCF1004F08BF5FEA500C50F1000041EB3F
:102CC000045141EA050130BD5FEA4C0C404141EB43
:102CD000010111F4801FA4F10104E9D191F0000F6A
:102CE00004BF01460020B1FA81F308BF2033A3F1ED
:102CF0000B03B3F120020CDA0C3208DD02F1140CE4
:102D0000C2F10C0201FA0CF021FA02F10CE002F11E
:102D10001402D8BFC2F1200C01FA02F120FA0CFC17
:102D2000DCBF41EA0C019040E41AA2BF01EB045160
:102D3000294330BD6FEA04041F3C1CDA0C340EDC5E
:102D400004F11404C4F1200220FA04F001FA02F3A1
:102D500040EA030021FA04F345EA030130BDC4F15F
:102D60000C04C4F1200220FA02F001FA04F340EA54
:102D70000300294630BD21FA04F0294630BD94F005
:102D8000000F83F4801306BF81F480110134013DEC
:102D90004EE77FEA645C18BF7FEA655C29D094EA5D
:102DA000050F08BF90EA020F05D054EA000C04BFDB
:102DB0001946104630BD91EA030F1EBF00210020C6
:102DC00030BD5FEA545C05D14000494128BF41F065
:102DD000004130BD14F580043CBF01F5801130BDC9
:102DE00001F0004545F0FE4141F470014FF0000054
:102DF00030BD7FEA645C1ABF194610467FEA655C05
:102E00001CBF0B46024650EA013406BF52EA0335A6
:102E100091EA030F41F4002130BD00BF90F0000F94
:102E200004BF0021704730B54FF4806404F13204D0
:102E30004FF000054FF0000150E700BF90F0000F89
:102E400004BF0021704730B54FF4806404F13204B0
:102E500010F0004548BF40424FF000013EE700BF80
:102E600042004FEAE2014FEA31014FEA02701FBF10
:102E700012F07F4393F07F4F81F06051704732F042
:102E80007F4208BF704793F07F4F04BF41F4002199
:102E9000704730B54FF4607401F0004521F00041F7
:102EA0001CE700BF50EA010208BF704730B54FF081
:102EB00000050AE050EA010208BF704730B511F082
:102EC000004502D5404261EB41014FF4806404F1BA
:102ED00032045FEA915C3FF4D8AE4FF003025FEA40
:102EE000DC0C18BF03325FEADC0C18BF033202EBC4
:102EF000DC02C2F1200300FA03FC20FA02F001FA1E
:102F000003FE40EA0E0021FA02F11444BDE600BFC0
:102F100070B54FF0FF0C4CF4E06C1CEA11541DBF6F
:102F20001CEA135594EA0C0F95EA0C0F00F0DEF83A
:102F30002C4481EA030621EA4C5123EA4C5350EA1F
:102F4000013518BF52EA033541F4801143F4801370
:102F500038D0A0FB02CE4FF00005E1FB02E506F001
:102F60000042E0FB03E54FF00006E1FB03569CF056
:102F7000000F18BF4EF0010EA4F1FF04B6F5007F5C
:102F800064F5407404D25FEA4E0E6D4146EB0606CE
:102F900042EAC62141EA55514FEAC52040EA5E5057
:102FA0004FEACE2EB4F1FD0C88BFBCF5E06F1ED801
:102FB000BEF1004F08BF5FEA500E50F1000041EB38
:102FC000045170BD06F0004646EA010140EA0200E5
:102FD00081EA0301B4EB5C04C2BFD4EB0C0541EA07
:102FE000045170BD41F480114FF0000E013C00F31C
:102FF000AB8014F1360FDEBF002001F0004170BD40
:10300000C4F10004203C35DA0C341BDC04F1140458
:10301000C4F1200500FA05F320FA04F001FA05F2E4
:1030200040EA020001F0004221F0004110EBD370B1
:1030300021FA04F642EB06015EEA430E08BF20EADD
:10304000D37070BDC4F10C04C4F1200500FA04F380
:1030500020FA05F001FA04F240EA020001F0004112
:1030600010EBD37041F100015EEA430E08BF20EA85
:10307000D37070BDC4F1200500FA05F24EEA020ECD
:1030800020FA04F301FA05F243EA020321FA04F0FC
:1030900001F0004121FA04F220EA020000EBD370B3
:1030A0005EEA430E08BF20EAD37070BD94F0000FB3
:1030B0000FD101F00046400041EB010111F4801FE7
:1030C00008BF013CF7D041EA060195F0000F18BF98
:1030D000704703F00046520043EB030313F4801FD4
:1030E00008BF013DF7D043EA0603704794EA0C0F8E
:1030F0000CEA135518BF95EA0C0F0CD050EA4106A4
:1031000018BF52EA4306D1D181EA030101F0004120
:103110004FF0000070BD50EA410606BF1046194648
:1031200052EA430619D094EA0C0F02D150EA013654
:1031300013D195EA0C0F05D152EA03361CBF104695
:1031400019460AD181EA030101F0004141F0FE4134
:1031500041F470014FF0000070BD41F0FE4141F4B8
:10316000780170BD70B54FF0FF0C4CF4E06C1CEAB8
:1031700011541DBF1CEA135594EA0C0F95EA0C0F6D
:1031800000F0A7F8A4EB050481EA030E52EA033528
:103190004FEA013100F088804FEA03334FF0805549
:1031A00045EA131343EA12634FEA022245EA111576
:1031B00045EA10654FEA00260EF000419D4208BF27
:1031C000964244F1FD0404F5407402D25B084FEAD4
:1031D0003202B61A65EB03055B084FEA32024FF480
:1031E00080104FF4002CB6EB020E75EB030E22BFDD
:1031F000B61A754640EA0C005B084FEA3202B6EB9D
:10320000020E75EB030E22BFB61A754640EA5C004B
:103210005B084FEA3202B6EB020E75EB030E22BFDB
:10322000B61A754640EA9C005B084FEA3202B6EBDC
:10323000020E75EB030E22BFB61A754640EADC009B
:1032400055EA060E18D04FEA051545EA16754FEAFD
:1032500006164FEAC30343EA52734FEAC2025FEA1B
:103260001C1CC0D111F4801F0BD141EA00014FF0AA
:1032700000004FF0004CB6E711F4801F04BF01437B
:103280000020B4F1FD0C88BFBCF5E06F3FF6AFAE97
:10329000B5EB030C04BFB6EB020C5FEA500C50F127
:1032A000000041EB045170BD0EF0004E4EEA1131AA
:1032B00014EB5C04C2BFD4EB0C0541EA045170BDB1
:1032C00041F480114FF0000E013C90E645EA060EF5
:1032D0008DE60CEA135594EA0C0F08BF95EA0C0F23
:1032E0003FF43BAF94EA0C0F0AD150EA01347FF46B
:1032F00034AF95EA0C0F7FF425AF104619462CE742
:1033000095EA0C0F06D152EA03353FF4FDAE1046A4
:10331000194622E750EA410618BF52EA43067FF4F5
:10332000C5AE50EA41047FF40DAF52EA43057FF485
:10333000EBAE12E74FF0FF3C06E000BF4FF0010C90
:1033400002E000BF4FF0010C4DF804CD4FEA410CF4
:103350007FEA6C5C4FEA430C18BF7FEA6C5C1BD0C1
:1033600001B050EA410C0CBF52EA430C91EA030F42
:1033700002BF90EA020F0020704710F1000F91EA9F
:10338000030F58BF994208BF90422CBFD8176FEA6D
:10339000E37040F0010070474FEA410C7FEA6C5C3B
:1033A00002D150EA013C07D14FEA430C7FEA6C5C42
:1033B000D6D152EA033CD3D05DF8040B704700BF6E
:1033C0008446104662468C461946634600E000BFBC
:1033D00001B5FFF7B7FF002848BF10F1000F01BD8E
:1033E0004DF808EDFFF7F4FF0CBF012000205DF859
:1033F00008FB00BF4DF808EDFFF7EAFF34BF0120DE
:1034000000205DF808FB00BF4DF808EDFFF7E0FF76
:1034100094BF012000205DF808FB00BF4DF808EDC7
:10342000FFF7CEFF94BF012000205DF808FB00BF2E
:103430004DF808EDFFF7C4FF34BF012000205DF810
:1034400008FB00BF4FEA410212F5001215D211D558
:103450006FF47873B3EB625212D94FEAC12343F091
:10346000004343EA505311F0004F23FA02F018BF13
:10347000404270474FF00000704750EA013005D1DC
:1034800011F0004008BF6FF0004070474FF000009F
:10349000704700BF4A0011D212F5001211D20DD5AB
:1034A0006FF47873B3EB62520ED44FEAC12343F04A
:1034B000004343EA505323FA02F070474FF00000F4
:1034C000704750EA013002D14FF0FF3070474FF0A3
:1034D000000070474FEA410C7FEA6C5C02D150EA71
:1034E000013C0AD14FEA430C7FEA6C5C02D152EAFC
:1034F000033C02D14FF0000070474FF001007047CD
:1035000070B500250C4E0D4CA41BA410A54209D18A
:1035100000F0E8FF00250A4E0A4CA41BA410A542A7
:1035200005D170BD56F8253098470135EEE756F8BD
:10353000253098470135F2E7FC440008FC440008B8
:10354000FC440008004500082DE9804889B0FFF7D9
:103550003DF8FFF71DF9FFF761F9FFF739FAFCF7BE
:10356000F7FDFCF739FE01210920FDF7AFFE01212F
:103570000420FDF7ABFE6846FDF708FB4FF48044DE
:103580001022032369465A488DF803208DF8023033
:10359000ADF80040FDF79CFA01210420FDF796FEEE
:1035A00001210846FDF79EFE6846FDF7EFFA182454
:1035B0000822022369464F48ADF800208DF80230FA
:1035C0008DF80340FDF784FA01A8FEF7EFFA4722D1
:1035D00040F2E73301A94FF08040CDE90123FEF727
:1035E0007DF804A8FEF7ECFA4FF47A740022424BFF
:1035F00004A94FF08040ADF818200493ADF81640B0
:10360000FEF78AF901214FF08040FEF7F5FADFF866
:1036100000A1DFF80091DFF80081384F384E002517
:103620002FA1D1E900014FF0010CBDF81620314B5C
:10363000CAF800201A681D601A68324C42F4204211
:103640001A60E562C4F834C0FCF7F2FD0D4604468A
:103650002D4BC3E90045FFF7F5FE8346FFF7EEFB70
:1036600002460B4620462946FFF79AFA1EA3D3E9E5
:103670000023FFF74DFCFFF70DFF5A46034649466E
:10368000404600F071F8214BD3E900452946204619
:10369000FFF7D8FE8346FFF7D1FB02460B462046D4
:1036A0002946FFF77DFA10A3D3E90023FFF730FC8A
:1036B000FFF7F0FE5A4603464946384600F054F8F4
:1036C00039463046FFF736FA30464146FFF732FAC0
:1036D0004FF47A70FFF7CEF8A1E700BFAFF3008098
:1036E0007B14AE47E17A843F0000000080842E41C5
:1036F000000C01400008014060000100140100209E
:10370000003801400024014030010020E00000208A
:10371000100100203C44000838010020002103E093
:103720000B4B5B58435004310A480B4B42189A42EA
:10373000F6D30A4A02E0002342F8043B084B9A42BF
:10374000F9D3FCF7D1FEFFF7DBFEFFF7FDFE704774
:103750000445000800000020C0000020C000002038
:10376000CC010020FEE700000EB46FF0004100B570
:103770009CB01DAB0290069007910491084809493E
:1037800053F8042B0591006802A9019300F066F834
:103790000022029B1A701CB05DF804EB03B0704766
:1037A000580000200802FFFF2DE9F0478E6882468E
:1037B0009E420C469046994637D88A8912F4906FFB
:1037C00031D00223256809696F1A656905EB450543
:1037D00095FBF3F509F101033B449D4238BF1D46BB
:1037E000530530D5294600F037FB064650B90C2367
:1037F0004FF0FF30CAF80030A38943F04003A381A3
:10380000BDE8F0873A46216900F0B6FAA38923F4AF
:10381000906343F08003A38126613E4426604E46B8
:103820006561ED1BA5604E4500D94E4632464146C6
:10383000206800F0ACFAA36800209B1BA3602368FB
:103840001E442660DCE72A4600F060FB064600289E
:10385000E2D12169504600F0B3FAC8E72DE9F04FF4
:103860001D468B899DB01F0680460C4616460FD517
:103870000B696BB9402100F0EFFA2060206128B994
:103880000C23C8F800304FF0FF30C8E040236361DC
:103890000023099320238DF8293030234FF0010BAA
:1038A0008DF82A30039537463D4615F8013B0BB19C
:1038B000252B3ED1B7EB060A0BD0534632462146A4
:1038C0004046FFF771FF013000F0A480099B53448C
:1038D00009933B78002B00F09D8000234FF0FF32CE
:1038E000CDE90523049307938DF853301A932F469F
:1038F000052217F8011B504800F030FA049BD0B99C
:10390000D90644BF20228DF853201A0744BF2B222A
:103910008DF853202A782A2A15D02F4600200A2510
:10392000079A394611F8013B303B092B4DD9B8B104
:103930000FE02F46B8E7404A3D46801A0BFA00F0E8
:1039400018430490D3E7039A111D12680391002ACB
:1039500001DB079204E0524243F002030792049312
:103960003B782E2B0CD17B782A2B33D1039B02374B
:103970001A1D1B680392002BB8BF4FF0FF3305934D
:103980002E4D03223978284600F0E8F938B140235B
:10399000401B03FA00F0049B01370343049339787A
:1039A000062227487E1C8DF8281000F0D7F9002841
:1039B00038D0244B13BB039B073323F00703083392
:1039C0000393099B4B4409936DE705FB02320120E9
:1039D0000F46A6E700230A25194601370593384606
:1039E00010F8012B303A092A03D9002BC8D00591D1
:1039F000C6E705FB012101230746F0E703AB00936F
:103A00002246114B04A94046AFF30080B0F1FF3FBE
:103A10008146D6D1A3895B063FF535AF09981DB025
:103A2000BDE8F08F03AB00932246074B04A9404644
:103A300000F082F8EAE700BF464400084C44000862
:103A40005044000800000000A93700082DE9F047A5
:103A500091461F468A680B6906469342B8BF1346D3
:103A6000C9F8003091F843200C46DDF8208012B1EF
:103A70000133C9F800302368990642BFD9F80030F5
:103A80000233C9F80030256815F0060507D104F1A6
:103A9000190AE368D9F800209B1AAB4229DC94F894
:103AA00043302268003318BF012392062ED404F15C
:103AB000430239463046C047013021D02368E568CB
:103AC00003F00603042B18BF0025D9F800204FF09F
:103AD000000908BFAD1AA368226908BF25EAE57589
:103AE0009342C4BF9B1AED181A344D451AD10020D9
:103AF00008E00123524639463046C047013003D121
:103B00004FF0FF30BDE8F0870135C2E73020E11803
:103B100081F843005A1C94F845102244023382F87D
:103B20004310C4E70123224639463046C0470130DE
:103B3000E6D009F10109D8E72DE9F04301F1430C82
:103B40000C46097E85B06E291746064698460C9AA3
:103B500000F0B38022D8632936D00AD8002900F0BB
:103B6000B980582900F0838004F1420584F842109E
:103B700032E0642901D06929F6D12068136805066E
:103B800003F104012AD51B681160002B03DA2D22F2
:103B90005B4284F843206F480A2239E0732900F021
:103BA0009D8008D86F2920D07029DDD1236843F08B
:103BB0002003236003E0752917D07829D4D1782316
:103BC000654884F8453055E0136804F14205191D35
:103BD0001B68116084F8423001238CE01B6810F0F0
:103BE000400F116018BF1BB2CFE713682568181D7E
:103BF0001060280601D51B6802E06806FBD51B880B
:103C00006F2914BF0A2208225248002184F8431069
:103C10006568002DA560C0F29580216821F004013F
:103C20002160002B3DD1002D40F08E806546082A92
:103C30000BD12368DB0708D5236962689A42DEBF8F
:103C4000302305F8013C05F1FF35ACEB050323619A
:103C5000CDF800803B4603AA21463046FFF7F6FE2A
:103C600001304DD14FF0FF3005B0BDE8F083394849
:103C700084F84510136821681D1D1B6815600A062D
:103C80000BD5CA0744BF41F0200121601BB922684F
:103C900022F0200222601022B7E74D0648BF9BB2F7
:103CA000EFE76546B3FBF2F102FB1133C35C05F8A5
:103CB000013D0B460029F5D1B9E713682568181DA9
:103CC0006169106028061B6801D5196002E06A0668
:103CD000FBD51980002365462361B9E71368191DD8
:103CE00011601D6862680021284600F037F808B1AD
:103CF000401B606063682361002384F84330A7E7BA
:103D000023692A4639463046C0470130AAD0236885
:103D10009B0713D4E068039B9842B8BF1846A3E7FB
:103D200001234A4639463046C04701309AD0013512
:103D3000E368039A9B1AAB42F2DCEBE7002504F13F
:103D40001909F5E7002BACD1037804F1420584F89A
:103D500042306CE7574400086844000810B5C9B207
:103D600002449042034601D1002303E01C78013055
:103D70008C42F6D1184610BD10B5431E0A4491423C
:103D800000D110BD11F8014B03F8014FF7E788424D
:103D900010B501EB020307D8421E99420AD011F870
:103DA000014B02F8014FF8E78342F5D98118D21A86
:103DB000D34200D110BD13F8014D01F8014DF7E7D2
:103DC00038B50546002943D051F8043C0C1F002BA0
:103DD000B8BFE41800F0D0F81E4A1368104633B993
:103DE000636014602846BDE8384000F0C6B8A342BE
:103DF0000BD921686218934201BF1A685B68521898
:103E0000226063600460EDE713465A680AB1A2427B
:103E1000FAD919685818A0420BD1206801445818E3
:103E200082421960DED110685268014419605A60FC
:103E3000D8E702D90C232B60D4E7206821188A42E6
:103E400001BF116852680918216062605C60C9E7AF
:103E500038BD00BF0801002070B5CD1C25F003055A
:103E600008350C2D38BF0C25002D064601DBA94274
:103E700003D90C233360002070BD00F07DF8214A87
:103E80001468214691B9204C23681BB9304600F0D4
:103E900063F820602946304600F05EF8431C24D1C8
:103EA0000C233046336000F068F8E4E70B685B1BD6
:103EB00018D40B2B0FD90B60CC18CD50304600F026
:103EC0005CF804F10B00231D20F00700C31AD3D0C7
:103ED0005A42E250D0E74B688C4216BF63601360D1
:103EE0000C46EBE70C464968CCE7C41C24F00304FD
:103EF000A04205D0211A304600F02EF80130CFD074
:103F00002560DBE7080100200C010020F8B507461A
:103F100014460E4621B9BDE8F8401146FFF79CBF94
:103F200022B9FFF74DFF25462846F8BD00F026F8D8
:103F3000A0420FD221463846FFF78EFF05460028E3
:103F4000F2D031462246FFF717FF31463846FFF7D9
:103F500037FFE9E73546E7E738B50023054C054666
:103F600008462360FEF7FAFD431C02D1236803B123
:103F70002B6038BDC80100207047704751F8043CE1
:103F8000181F002BBCBF0B58C0187047014B186896
:103F9000704700BF580000202DE9F0438BB0044665
:103FA0000D4600F079F8364B804693F9006089465B
:103FB000731C0DD022462B4620462946FFF78AFA6D
:103FC00030B90022002320462946FFF731FA20B1FC
:103FD000404649460BB0BDE8F0832A4B0890CDE936
:103FE0000245CDE904450193DEB94FF06046264F06
:103FF0002046294600220023CDE90667FFF7F0F9A5
:10400000002835D002230093684600F00FFAB8B1BB
:10401000089BD3B9DDE90689404649460BB0BDE8A7
:10402000F0830022194B2046CDE9062329460022C1
:104030000023FFF7D5F968B102239E420093E3D134
:10404000FFF7A4FF22230360E2E7FFF79FFF089B2F
:104050000360DFE70123022E00930BD1FFF796FFE9
:10406000212303600A4800F0E3F9CDE90601CFE718
:1040700001230093684600F0D9F90028F2D1EDE75A
:10408000BC000020DC440008FFFFEFC70000F0FF89
:10409000E0440008000000002DE9F04FB1F5801F5A
:1040A00085B006460F460B4680F2D180024621F0CD
:1040B0000044224300F0DA800029C0F2E9800022A7
:1040C000D54BFEF725FF0B46D44A064693420F46D2
:1040D0006FF0350E00F3C180C3F3130505F5152C01
:1040E0000CF6647C0CF4801C8CF07F5282F440123D
:1040F0001C1542EA0507A4F2FF3474440022C84BA1
:104100003046394604EB1C54FEF74AFDAB1CC3F3A2
:104110001303022B82468B464FF0000240F3AF8020
:104120004FF08043FEF73EFD02460B46504659468F
:10413000FFF718F8064620460F46FEF77FFE324688
:10414000CDE902013B4630463946CDE90067FEF72E
:10415000DFFE02460B4680468946FEF7D9FE9AA34B
:10416000D3E9002306460F46FEF7D2FE98A3D3E913
:104170000023FEF717FD32463B46FEF7C9FE96A325
:10418000D3E90023FEF70EFD32463B46FEF7C0FEA4
:1041900093A3D3E90023FEF705FD42464B46FEF705
:1041A000B7FE91A3D3E900238046894630463946BD
:1041B000FEF7AEFE8EA3D3E90023FEF7F3FC3246F2
:1041C0003B46FEF7A5FE8CA3D3E90023FEF7EAFCED
:1041D00032463B46FEF79CFE0B46024649464046A9
:1041E000FEF7E0FCA5F5C223C5F5D725A3F27A4377
:1041F00051351D43002D06460F4640F387800022AF
:10420000884B50465946FEF783FE52465B46FEF702
:104210007FFE02460B468046894630463946FEF709
:10422000C1FCDDE90023FEF773FE06460F46002CB5
:1042300040F0818002460B4640464946FEF7B0FCFE
:1042400002460B4650465946FEF7AAFC0BE0734A5D
:104250004FF0000E93427FF73FAF32463B46304669
:104260003946FEF79FFC05B0BDE8F08F0022002321
:1042700000206D49FEF776FF05B0BDE8F08F002302
:10428000FFF7AEF860B1002C7CD100200021EAE7F6
:104290000246FEF785FC00220023FEF763FFE2E7FB
:1042A00057A3D3E9002350465946FEF731FE024694
:1042B0000B4600205B49FEF773FC524606460F464C
:1042C0005B4650465946FEF723FE02460B463046F3
:1042D0003946FEF71DFE06460F462CB32046FEF774
:1042E000ADFD49A3D3E9002380468946FEF710FEC1
:1042F00047A3D3E9002304460D4640464946FEF74E
:1043000007FE02460B46304639462CE002460B4675
:1043100050465946FEF744FCDDE90023FEF7F8FD60
:1043200006460F46002C47D132463B46504659467A
:10433000FEF736FC97E734A3D3E90023DDE9020159
:10434000FEF7E6FD32A3D3E9002304460D46DDE97E
:104350000201FEF7DDFD32463B46FEF723FC024636
:104360000B4640464946FEF71BFC52465B46FEF7AD
:1043700017FC02460B4620462946FEF711FC05B005
:10438000BDE8F08F2046FEF759FD1FA3D3E90023B7
:1043900006460F46FEF7BCFD1DA3D3E900230446E5
:1043A0000D4630463946FEF7B3FD02460B46204621
:1043B0002946FEF7F7FB56E7DDE9028912A3D3E9A8
:1043C00000234046494691E744523EDF12F1C23F86
:1043D000DE03CB966446C73F599322942449D23FCB
:1043E000935555555555E53F9FC678D0099AC33F1B
:1043F000AF788E1DC571CC3F04FA97999999D93F32
:10440000555555555555D53F0000E0FE422EE63F27
:10441000763C7935EF39EA3D00005043FFFFEF7FEE
:104420000000F03F0000E03F000050C30020704754
:1044300000200149704700BF0000F87F25642E2549
:104440006C64200D0A00232D302B2000686C4C007A
:104450006566674546470030313233343536373884
:1044600039414243444546003031323334353637E2
:104470003839616263646566000000000000000076
:10448000000000000000000000000000000000002C
:10449000000000000000000000000000000000001C
:1044A000000000000000000000000000000000000C
:1044B00000000000000000000000000000000000FC
:1044C00000000000000000000000000000000000EC
:1044D0000000000000000000000000006C6F67009A
:1044E00000000000F8B500BFF8BC08BC9E4670474D
:0C44F000F8B500BFF8BC08BC9E46704741
:0444FC00350100087E
:04450000110100089D
:104504000000000000005440613255302AA9233FC6
:1045140000000000000008400000000000408F4040
:1045240066666666666606400000000000000000DD
:10453400010203040607080900A24A04000000005F
:104544000102030401020304060708090204060821
:1045540015CD5B07FA0000005C000020000000009D
:104564009C440008BC4400087C440008000000008F
:104574000000000000000000000000000000000037
:104584000000000000000000000000000000000027
:104594000000000000000000000000000000000017
:1045A4000000000000000000000000000000000007
:1045B40000000000000000000000000001000000F6
:040000050800371D9B
:00000001FF
